:100000000C942E030C9456030C9456030C94D614A3
:100010000C94D6140C94D6140C9456030C945603DA
:100020000C9456030C9456030C9456030C945603EC
:100030000C9456030C9456030C9456030C945603DC
:100040000C9434140C9456030C94A4140C947E1445
:100050000C9456030C9456030C9456030C945603BC
:100060000C944E150C94560308000000BE922449CF
:10007000123EABAAAA2ABECDCCCC4C3E00000080DA
:10008000BEABAAAAAA3E00000000BF000000803F4D
:100090000000000000084178D3BB4387D1133D190D
:1000A0000E3CC3BD4282AD2B3E68EC8276BED98F3A
:1000B000E1A93E4C80EFFFBE01C4FF7F3F0000007E
:1000C00000004E414E494E495459494E46CDCCCC84
:1000D0003D0AD7233C17B7D13877CC2B329595E61C
:1000E000241FB14F0A000020410000C84200401CFC
:1000F0004620BCBE4CCA1B0E5AAEC59D7400000003
:1001000000003E5B4F5B3E3E6B4F6B3E1C3E7C3EB9
:100110001C183C7E3C181C577D571C1C5E7F5E1CC7
:1001200000183C1800FFE7C3E7FF0018241800FF81
:10013000E7DBE7FF30483A060E2629792926407F7B
:10014000050507407F05253F5A3CE73C5A7F3E1C8A
:100150001C08081C1C3E7F14227F22145F5F005F76
:100160005F06097F017F006689956A606060606054
:1001700094A2FFA29408047E040810207E20100898
:10018000082A1C08081C2A08081E101010100C1E33
:100190000C1E0C30383E3830060E3E0E06000000B5
:1001A000000000005F00000007000700147F147FBC
:1001B00014242A7F2A1223130864623649562050D9
:1001C0000008070300001C2241000041221C002AF5
:1001D0001C7F1C2A08083E080800807030000808B0
:1001E000080808000060600020100804023E514921
:1001F000453E00427F400072494949462141494DF0
:10020000331814127F1027454545393C4A49493176
:1002100041211109073649494936464949291E00F5
:10022000001400000040340000000814224114149F
:10023000141414004122140802015909063E415DBC
:10024000594E7C1211127C7F494949363E41414149
:10025000227F4141413E7F494949417F09090901C6
:100260003E414151737F0808087F00417F410020D3
:1002700040413F017F081422417F404040407F02BF
:100280001C027F7F0408107F3E4141413E7F0909E7
:1002900009063E4151215E7F0919294626494949EF
:1002A0003203017F01033F4040403F1F2040201F99
:1002B0003F4038403F63140814630304780403612B
:1002C00059494D43007F414141020408102000413B
:1002D00041417F04020102044040404040000307C6
:1002E000080020545478407F28444438384444441B
:1002F00028384444287F385454541800087E090292
:1003000018A4A49C787F0804047800447D40002051
:1003100040403D007F1028440000417F40007C04A5
:100320007804787C080404783844444438FC182461
:10033000241818242418FC7C080404084854545435
:100340002404043F44243C4040207C1C2040201CCA
:100350003C4030403C44281028444C9090907C44D1
:1003600064544C440008364100000077000000410E
:1003700036080002010204023C2623263C1EA1A1ED
:1003800061123A4040207A385454555921555579D4
:100390004122545478422155547840205455794094
:1003A0000C1E5272123955555559395454545939F5
:1003B000555454580000457C410002457D420001DF
:1003C000457C407D1211127DF0282528F07C545583
:1003D00045002054547C547C0A097F4932494949DC
:1003E000323A4444443A324A4848303A4141217A08
:1003F0003A42402078009DA0A07D3D4242423D3DD2
:100400004040403D3C24FF2424487E4943662B2F36
:10041000FC2F2BFF0929F620C0887E0903205454A5
:1004200079410000447D413048484A3238404022FA
:100430007A007A0A0A727D0D19317D2629292F2822
:10044000262929292630484D402038080808080860
:10045000080808382F10C8ACBA2F102834FA00004A
:100460007B000008142A142222142A14085500556F
:100470000055AA55AA55AAFF55FF55FF000000FFD9
:1004800000101010FF00141414FF001010FF00FFE4
:100490001010F010F0141414FC001414F700FF00F6
:1004A00000FF00FF1414F404FC141417101F1010A4
:1004B0001F101F1414141F00101010F00000000073
:1004C0001F101010101F10101010F010000000FF6F
:1004D000101010101010101010FF10000000FF146A
:1004E0000000FF00FF00001F10170000FC04F414C0
:1004F000141710171414F404F40000FF00F7141478
:100500001414141414F700F7141414171410101FF3
:10051000101F141414F4141010F010F000001F1029
:100520001F0000001F14000000FC140000F010F079
:100530001010FF10FF141414FF141010101F0000EF
:100540000000F010FFFFFFFFFFF0F0F0F0F0FFFF02
:10055000FF0000000000FFFF0F0F0F0F0F38444493
:100560003844FC4A4A4A347E02020606027E027E73
:100570000263554941633844443C04407E201E20B8
:1005800006027E020299A5E7A5991C2A492A1C4C5D
:100590007201724C304A4D4D303048784830BC6260
:1005A0005A463D3E494949007E0101017E2A2A2AD8
:1005B0002A2A44445F444440514A444040444A51FA
:1005C000400000FF0103E080FF000008086B6B089B
:1005D0003612362436060F090F06000018180000E0
:1005E000001010003040FF0101001F01011E001922
:1005F0001D1712003C3C3C3C0000000000000000C5
:1006000000240027002A000000000800020100006A
:1006100003040700000000000000000000000023A9
:100620000026002900010204081020408001020475
:1006300008102001020408102000000000250028F6
:10064000002B000404040404040404020202020255
:1006500002030303030303006D169D1E11241FBE36
:10066000CFEFD8E0DEBFCDBF26E0A8E5B4E001C003
:100670001D92A538B207E1F714E0A0E0B1E0E2ED89
:10068000FBE402C005900D92A835B107D9F713E03D
:10069000CDE2D3E004C02197FE010E94D423CC32E6
:1006A000D107C9F70E94F1170C94DC250C940000C7
:1006B000FC0120812EBD0DB407FEFDCF2EB5FC013F
:1006C0002083089590E0FC01E95FF94F2491FC013B
:1006D000EB5DF94F3491FC01ED5BF94FE491EE23B2
:1006E000C9F0222339F0233001F1A8F4213019F1A7
:1006F000223029F1F0E0EE0FFF1FE75CF94FA591E2
:10070000B4918FB7F894EC91611126C030953E23D7
:100710003C938FBF08952730A9F02830C9F02430CA
:1007200049F7809180008F7D03C0809180008F7792
:1007300080938000DFCF84B58F7784BDDBCF84B515
:100740008F7DFBCF8091B0008F778093B000D2CFA8
:100750008091B0008F7DF9CF3E2BDACFCF93DF931E
:1007600090E0FC01EB5DF94F24918D5B994FFC010A
:1007700084918823D1F090E0880F991FFC01E35009
:10078000FA4FA591B491FC01E75CF94FC591D49162
:1007900061110EC09FB7F8948C91E22FE0958E23E3
:1007A0008C932881E223E8839FBFDF91CF91089546
:1007B0008FB7F894EC91E22BEC938FBFF6CF823099
:1007C000910538F0880F991F880F991F0597019799
:1007D000F1F708959F92AF92BF92CF92DF92EF927E
:1007E000FF920F931F93CF93DF93EC015B018885FA
:1007F000998511E0892B09F010E8F501E0808E2D34
:100800008123992493948111912C2C813D814E81D7
:100810005F8160E271EA87E090E00E949E23022FF0
:10082000F12CC22ED12C002319F0C6010E94DF0347
:100830008A85982F977F09F04FC08D858F3F89F06B
:100840009E2D912381E009F480E0891551F0EF8518
:10085000F8898F899923D1F19081892B80839924FC
:100860009394E989FA898081998D892B808300236B
:1008700019F0C6010E94DF038E858F3F39F0EB89A6
:10088000FC898081988D892309F0F12AE989FA8908
:100890009081898D80958923808388859985892B8E
:1008A00009F073C0110F1111BECF8E858F3F11F06B
:1008B000F501F082DF91CF911F910F91FF90EF90A2
:1008C000DF90CF90BF90AF909F90089590818095DA
:1008D00089238083912CC5CF8C30A1F58D858F3FE6
:1008E00049F0EF85F8898F899E2D912339F1908108
:1008F000892B8083E989FA899081898D8095892364
:100900008083002319F0C6010E94DF03E989FA8978
:100910008081998D892B8083002319F0C6010E9464
:10092000DF038E858F3F09F4B8CFEB89FC89808186
:10093000988D892309F4B1CFF12AAFCF90818095AA
:100940008923D7CFE989FA898081998D892B808382
:10095000002319F0C6010E94DF038D858F3F49F007
:10096000EF85F8898F899E2D912359F09081892BED
:100970008083E989FA899081898D80958923808394
:10098000D0CF908180958923F3CF16958CCFAF92ED
:10099000BF92CF92DF92EF92FF920F931F93CF936C
:1009A000DF931F92CDB7DEB78C015B016A01DC01DA
:1009B0008D919C911197892B39F01296ED91FC91B4
:1009C000908181819CBD8DBDF80183858F3F19F099
:1009D00060E00E9462037501CA0CDB1CCE14DF04C8
:1009E000A9F0D7018D917D018983F80180819181E2
:1009F000892B29F0CE0101960E945803EFCFBE014A
:100A00006F5F7F4FC8010E94EA03E8CFD8011B96B1
:100A10008C918F3F19F061E00E94620381E00F909A
:100A2000DF91CF911F910F91FF90EF90DF90CF90CA
:100A3000BF90AF9008953FB7F8948091360590919C
:100A40003705A0913805B091390526B5A89B05C09A
:100A50002F3F19F00196A11DB11D3FBFBA2FA92F3D
:100A6000982F8827BC01CD01620F711D811D911D3A
:100A700042E0660F771F881F991F4A95D1F70895A6
:100A80008F929F92AF92BF92CF92DF92EF92FF929E
:100A90004B015C010E941B056B017C010E941B0540
:100AA0006C197D098E099F09683E73408105910587
:100AB000A8F321E0821A9108A108B10888EEC80EB7
:100AC00083E0D81EE11CF11C81149104A104B1043F
:100AD00029F7FF90EF90DF90CF90BF90AF909F905D
:100AE0008F9008952FB7F894609132057091330577
:100AF00080913405909135052FBF0895089508958C
:100B0000DB0114964D915C9115976D917C91DC0100
:100B1000ED91FC910280F381E02D0994AF92BF9298
:100B2000CF92DF92EF92FF920F931F93CF93DF93B9
:100B30006C017B018B01040F151FEB015E01AE18E8
:100B4000BF08C017D10759F06991D601ED91FC910A
:100B50000190F081E02DC6010995892B79F7C50137
:100B6000DF91CF911F910F91FF90EF90DF90CF9089
:100B7000BF90AF900895FC01538D448D252F30E038
:100B8000842F90E0821B930B541710F0CF9608959A
:100B900001970895FC01918D828D981761F0A28DC7
:100BA000AE0FBF2FB11D5D968C91928D9F5F9F738D
:100BB000928F90E008958FEF9FEF0895FC01918D43
:100BC000828D981731F0828DE80FF11D858D90E0B0
:100BD00008958FEF9FEF0895FC01918D228D892F4D
:100BE00090E0805C9F4F821B91098F739927089535
:100BF0008AE895E00E94EC0521E0892B09F420E0C9
:100C0000822F089580E090E0892B29F00E94F8055A
:100C100081110C9400000895FC01A48DA80FB92F38
:100C2000B11DA35ABF4F2C91848D90E001968F7314
:100C30009927848FA689B7892C93A089B1898C9133
:100C4000837080648C93938D848D981306C0028882
:100C5000F389E02D80818F7D80830895EF92FF924C
:100C60000F931F93CF93DF93EC0181E0888F9B8DCF
:100C70008C8D98131AC0E889F989808185FF15C089
:100C80009FB7F894EE89FF896083E889F9898081AC
:100C90008370806480839FBF81E090E0DF91CF917B
:100CA0001F910F91FF90EF900895F62E0B8D10E09D
:100CB0000F5F1F4F0F731127E02E8C8D8E110CC00C
:100CC0000FB607FCFACFE889F989808185FFF5CF57
:100CD000CE010E940C06F1CFEB8DEC0FFD2FF11D24
:100CE000E35AFF4FF0829FB7F8940B8FEA89FB8994
:100CF00080818062CFCFCF93DF93EC01888D8823F2
:100D0000B9F0AA89BB89E889F9898C9185FD03C06E
:100D1000808186FD0DC00FB607FCF7CF8C9185FF53
:100D2000F2CF808185FFEDCFCE010E940C06E9CF86
:100D3000DF91CF9108952091FE043091FF04281790
:100D4000390771F49091FC048091FD04981741F0EB
:100D5000E091FC04F0E0E454FB4F808190E00895C2
:100D60008FEF9FEF08950895EF92FF920F931F93D7
:100D7000CF93DF93DC015C96ED90FC905D97E114DE
:100D8000F10479F481E090E013969C938E9312978E
:100D900090E080E0DF91CF911F910F91FF90EF9055
:100DA00008955196ED91FC91529750968C915097E1
:100DB000982F90950FB75E962C915E97122F127018
:100DC00021FD6095F8942081112319F1282B2083AF
:100DD000E7012197F1F728E0462F50E0308160FFCE
:100DE0001AC0382B3083E7012197F1F7BA017595C6
:100DF0006795215089F7112381F0808189238083B1
:100E00000FBF5C968D919C910197F1F781E090E086
:100E1000C1CF2923DCCF3923E5CF9081892BEFCFB8
:100E20002091FE043091FF042817390761F4809166
:100E3000FD042091FC0490E0805C9F4F821B91098F
:100E40008F739927089590E080E008952091FE0423
:100E50003091FF0428173907B9F49091FC04809170
:100E6000FD04981789F0E091FC04F0E0E454FB4F96
:100E700080812091FC0430E02F5F3F4F2F73332798
:100E80002093FC0490E008958FEF9FEF08950F9357
:100E90001F93CF93DF931F92CDB7DEB78C01698389
:100EA00060E0FC01868D0E94620341E050E0BE01DB
:100EB0006F5F7F4FF801838D948D0E94C7040F9060
:100EC000DF91CF911F910F910895CF93C82F87FD88
:100ED000CFE7C093770661E288E596E00E94470776
:100EE0006C2F606888E596E00E94470760E288E51D
:100EF00096E0CF910C944707CF938091750687FDBC
:100F000013C061E00E94AE0360E0809175060E940C
:100F1000620361E070E080E090E00E94400561E0E3
:100F2000809175060E946203C0917806C83008F06F
:100F3000C7E0C093780661E288E596E00E94470723
:100F40006C2F606188E596E00E94470760E288E5C3
:100F500096E00E944707809177060E94650760E24D
:100F600088E596E00E9447076CE088E596E0CF911F
:100F70000C944707FF920F931F93CF93DF939091A9
:100F80007906992339F080917A068F5F8917E8F501
:100F900080937A06D0917D06D695D695D69584E530
:100FA000D89F8001112480917E068695869586952E
:100FB0008D1780F16D2F606488E596E00E944707E9
:100FC000C0917B06F0907C066C2F606888E596E007
:100FD0000E94470761E0809176060E9462034F2DD0
:100FE00050E06C2F70E0461B570B4F5F5F4F600F58
:100FF000711F685F7E4F80917306909174060E9406
:10100000C704DF5F0C5A1F4FCECF10927A060E94A2
:101010007C07C0CF60E488E596E00E94470783E53F
:1010200080937B0610927C068FE280937D0610925F
:101030007E06DF91CF911F910F91FF9008951F932E
:10104000CF93DF93EC01162F60E20E9447076CE01C
:1010500011116DE0CE01DF91CF911F910C944707E4
:10106000FC0177FD55C080859185681779070CF0E4
:101070004FC057FD4DC082859385481759070CF026
:1010800047C08689823009F444C0833009F44EC0D9
:10109000813031F48FE290E0861B970BBA01AC01EE
:1010A000842FA62F93A1691708F4962F93A394A1D8
:1010B0009A1708F49A2F94A395A1891708F4982FEA
:1010C00095A396A1981708F4982F96A3CA0157FDE7
:1010D0000796E3E095958795EA95E1F7A4E5A89F43
:1010E000F001A99FF00D1124E60FF71FE85FFE4FF6
:1010F000CA0168E070E00E948A2341E050E001C02C
:10110000440F8A95EAF78081232BB9F0842B8083E2
:10111000089583E590E0DC01A61BB70BBD018FE2CB
:1011200090E0DC01A41BB50BAD01BACF83E590E0E4
:10113000841B950BAB01BC01B3CF40958423E7CF53
:1011400020919904260F3327331F21323105ECF407
:1011500020916005FC0190E080E0243069F082E09D
:101160000895A09199042191AC0147585B4FA40FB9
:10117000B52FB11D2C930196861798F38091990491
:10118000680F6093990480E0089581E008951092BB
:10119000600581E080935F0510923A0561E082E18D
:1011A0000E94620361E083E10E946203E9EBF0E0E8
:1011B00080818E7F808380818D7F808388E480938F
:1011C000B80085E48093BC000895CF93DF9391E04D
:1011D000909378048823B9F0C091B800D091BA00F8
:1011E0008091BC008A7B8093BC0060E082E10E9419
:1011F000620360E083E10E9462030E94C708D0930B
:10120000BA00C093B800DF91CF9108958F929F925A
:10121000AF92BF92CF92DF92EF92FF920F931F9304
:10122000CF93DF93D0918905D13208F0D7C0182F22
:10123000C09188050E941B056B017C0180916005AF
:1012400081116BC082E08093600510935F058FEF82
:1012500080935E0510925D05D0935C05A8E6B5E02D
:10126000ECE3F5E080E0D81391C010923B0580914B
:101270003B05CC0FC82BC0933B0580913A058130CC
:1012800009F088C010923A050E941B056B017C0191
:1012900080913B058093BB0080916205909163052E
:1012A000A0916405B0916505892B8A2B8B2BA1F049
:1012B0000E941B0500916205109163052091640551
:1012C000309165056C197D098E099F09061717076E
:1012D0002807390708F442C08091BC0083FDD8CFAD
:1012E00085EC8093BC000E941B056B017C01809102
:1012F0006005823009F450C080915E058F3F09F48B
:101300006FC080915E05803209F46CC080915E05EB
:10131000803309F469C084E026C080916205909111
:101320006305A0916405B0916505892B8A2B8B2BF1
:1013300009F484CF0E941B0580906205909063059C
:10134000A0906405B09065056C197D098E099F0910
:1013500086169706A806B90608F070CF8091610539
:101360000E94E50885E010926705109289051092A9
:101370006605DF91CF911F910F91FF90EF90DF9065
:10138000CF90BF90AF909F908F9008959D91919333
:101390008F5F69CF85EEA5CF80916205909163053F
:1013A000A0916405B0916505892B8A2B8B2B09F4DC
:1013B0009ECF0E941B05009162051091630520914C
:1013C0006405309165056C197D098E099F09061722
:1013D00017072807390708F08ACFC0CF81E0C3CFAD
:1013E00080E0C1CF82E0BFCF83E0BDCFE0910505B3
:1013F00080910405E81730F4F0E0E85AFB4F808153
:1014000090E008958FEF9FEF0895909105058091EA
:1014100004052FEF3FEF981748F4E92FF0E0E85A62
:10142000FB4F208130E09F5F90930505C90108952F
:101430008091040590910505891B990B0895CF9221
:10144000DF92EF92FF920F931F93CF93DF937C0174
:10145000CB018A0120916605222389F0EB016B0103
:10146000C40ED51ECC15DD0569F06991D701ED914B
:10147000FC910190F081E02DC7010995F3CF642F15
:101480000E94A008C801DF91CF911F910F91FF909A
:10149000EF90DF90CF900895CF93DF931F92CDB759
:1014A000DEB76983209166052223F9F02091890532
:1014B000203258F021E030E0FC013383228390E0B9
:1014C00080E00F90DF91CF91089580916705E82F1C
:1014D000F0E0E859FA4F998190838F5F8093670518
:1014E0008093890581E090E0ECCF61E0CE01019628
:1014F0000E94A008F7CF682F87E296E00C944C0A70
:101500000895FC016370668B848195812681378103
:10151000613039F0633029F09187808733872287E3
:101520000895318720879387828708952F923F926D
:101530004F925F926F927F928F929F92AF92BF92E3
:10154000CF92DF92EF92FF920F931F93CF93DF938F
:10155000CDB7DEB76A970FB6F894DEBF0FBECDBF2A
:101560009A8F898F7A8369834A01D22E18870F83D5
:101570003701BC2CDC0159962D913C915A972115CD
:10158000310509F015C118968D919C91199768172E
:1015900079070CF0D7C11A968D919C91481759077D
:1015A0000CF0D0C14C2C512CB6E0CB9E600D711DBF
:1015B00011247C876B87161617060CF0C3C1EA2D21
:1015C000F0E0FA87E98793E0EE0FFF1F9A95E1F7C5
:1015D000F88BEF87CF01840F951F181619060CF0B2
:1015E000B1C1A98DBA8D58968C91811104C0BFEA02
:1015F000BD1508F4D394A98DBA8DED91FC91119786
:101600000284F385E02DCD010995B5E0DB9EC00194
:101610001124E981FA81FC83EB83312C212C9C017C
:1016200023503F4F388F2F8B4A2D50E05E8B4D8BD0
:10163000EF89F88DE20DF31D44919E828D82D12CAD
:10164000C12C69817A81620D731D7A8B698B842F1D
:1016500090E09C8B8B8BE98DFA8DA081B18140FF4E
:1016600082C0F1E0BF126FC0AF126DC01C96ED9149
:10167000FC912F813885A4014C0D5D1D69897A8903
:10168000898D9A8D0995EB89FC89F595E7954E2F03
:101690005FEFC51AD50A6D817E818D899E89680F9D
:1016A000791F7E836D8398E0C916D10481F6AFEF70
:1016B0002A1A3A0AEB81FC81E40DF51DFC83EB83C9
:1016C000F5E02F16310409F0B3CF2F8138852615A8
:1016D0003705B9F0A98DBA8DED91FC91B1E0BB123F
:1016E00057C0AB1255C069817A816B5F7F4F00880C
:1016F000F189E02D830128E030E0A401898D9A8DE5
:101700000995A98DBA8DED91FC9111970688F789FD
:10171000E02DCD016A960FB6F894DEBF0FBECDBFA7
:10172000DF91CF911F910F91FF90EF90DF90CF90BD
:10173000BF90AF909F908F907F906F905F904F90F1
:101740003F902F9009941E96ED91FC91EF80F884C4
:1017500009851A8592014D815E816B817C81898D1D
:101760009A8D099590CF2F8138852615370509F474
:101770008ACF31E0B31207C0A31205C01C96ED91C9
:10178000FC91930178CF1E96ED91FC917301E0CF0F
:101790006B857C85641975090684F785E02D7301D6
:1017A0000F8518899201A401898D9A8D0995A9CF79
:1017B000F90134969491329745915491D91AB7E032
:1017C000DB9E400D511D1124F901259134913C8B74
:1017D0002B8BFA0125903490FA0132967490319651
:1017E0003491398B329664903196449041E04C1597
:1017F00018F04A1508F07FC0662D062C000C770BF8
:101800007C836B83842D042C000C990B9E838D8329
:10181000A98DBA8DED91FC9111970284F385E02D8D
:10182000CD010995512CD12CC12CEA2DF0E0FA877D
:10183000E9872B2D30E03C872B87A401440D511DF7
:1018400047FC5A95588F4F8B69817A81660D711DBF
:1018500067FC7A957E876D877989C71608F051CF26
:101860002C2D30E04D815E81420F531FA985BA8532
:101870004A9FC0014B9F900D5A9F900D1124FC016F
:10188000E80DF91DF88BEF87852D612C4F89588D58
:10189000420F531F5E8B4D8B671408F050C04424D9
:1018A0004394480E877041F4C1010196EB89FC898D
:1018B000E20DF31DD4901C01D7FE19C0A98DBA8D7D
:1018C000ED91FC91662D70E0B1E0BB1219C0AB1236
:1018D00017C02D853E85620F731F0484F585E02DAA
:1018E0002F8138854D895E89898D9A8D0995DD0C0A
:1018F0006394842DD1CF1E821D821C821B8288CFCF
:101900004B815C81640F751FAB85BC856A9FC001EC
:101910006B9F900D7A9F900D112469817A81680FD9
:10192000791F0684F785E02DEF80F88409851A85F4
:101930009D014F855889898D9A8D0995D8CF570C6F
:10194000C3948ACF6A960FB6F894DEBF0FBECDBFA0
:10195000DF91CF911F910F91FF90EF90DF90CF908B
:10196000BF90AF909F908F907F906F905F904F90BF
:101970003F902F9008958F929F92AF92CF92EF92C7
:10198000FF920F931F93CF93DF93EC01262F898D46
:101990009A8D009709F051C06A30D1F41D861C86DB
:1019A0008D8948E0849F900111248E859F85820F48
:1019B000931F9F878E8781E090E0DF91CF911F91E9
:1019C0000F91FF90EF90CF90AF909F908F900895E0
:1019D0006D3089F3CC88AD888F898823C1F08C85E0
:1019E0009D8536E0C39E800D911D11244885598543
:1019F0004817590764F44E855F851D861C8638E0BC
:101A0000A39EC0011124840F951F9F878E87EA88AB
:101A1000FB88088919894E855F856C857D85CE0197
:101A20000E94960A2C898C859D8546E0249F800D16
:101A3000911D11249D878C87BECF6A3069F41D8665
:101A40001C86FC013896E4912D898E859F85E29F46
:101A5000800D911D1124ADCF6D3009F4ACCFFC0188
:101A600034963491631708F4A6CF3296E491E617C2
:101A700008F4A1CFFC01329685909490462F431B29
:101A8000342F47E0349F800C911C1124F4013296CE
:101A900034913196E4913323A9F1EE2399F1CC8866
:101AA000F4013596E491AD884F89442301F10E2E5F
:101AB000000CFF0BE30FF11DCE9EA001CF9E500D39
:101AC00011246C857D85460F571F688579856417BD
:101AD00075076CF44E855F851D861C86FC01389663
:101AE000E491AE9E400D511D11245F874E87EA8818
:101AF000FB88088919894E855F856C857D85CE01B7
:101B00000E94960AF4013496E4912C898C859D8577
:101B1000E29F800D911D11248DCF6F927F928F9245
:101B20009F92AF92BF92CF92DF92EF92FF920F936C
:101B30001F93CF93DF93EC016B015A0139014801E8
:101B4000E881F9810284F385E02D0995E881F98126
:101B50000288F389E02D87019301A501B601CE012A
:101B60000995A501480D591D41505109E881F98198
:101B70000288F389E02D9301B601CE010995E88131
:101B8000F9810088F189E02D9401A501B601CE010B
:101B90000995C60CD71CB60161507109E881F9811D
:101BA0000088F189E02D9401A501CE010995E88115
:101BB000F9810688F789E02DCE01DF91CF911F9141
:101BC0000F91FF90EF90DF90CF90BF90AF909F90DC
:101BD0008F907F906F9009946F927F928F929F92D7
:101BE000AF92BF92CF92DF92EF92FF920F931F932B
:101BF000CF93DF935C01EB016A0149013801870152
:101C0000DC01ED91FC916217730719F564167506F6
:101C10002CF0962D872D3A01C92ED82E9601261923
:101C200037092F5F3F4F048CF58DE02DA301BE01D6
:101C3000C5010995DF91CF911F910F91FF90EF9012
:101C4000DF90CF90BF90AF909F908F907F906F90DC
:101C500008954615570591F42617370724F0892D66
:101C60004B01C22FD82F9E01281939092F5F3F4FF2
:101C7000068CF78DE02DA601B401DACF0284F3853E
:101C8000E02D0995D501ED91FC910488F589E02DB1
:101C900083019401A601BE01C5010995D501ED910D
:101CA000FC910688F789E02DC501DF91CF911F9146
:101CB0000F91FF90EF90DF90CF90BF90AF909F90EB
:101CC0008F907F906F900994EF92FF920F931F93E4
:101CD000DC011A960D911C911B9718962D913C9141
:101CE0001997ED91FC9100A0F1A1E02D7B0150E04E
:101CF00040E070E060E009951F910F91FF90EF9038
:101D000008954F925F926F927F928F929F92AF92BF
:101D1000BF92CF92DF92EF92FF920F931F93CF93D8
:101D2000DF936C012B015A0139014801DC01ED916F
:101D3000FC910284F385E02D0995E201640C751C89
:101D4000D601ED91FC91C615D7055CF40088F189A8
:101D5000E02D87019401A501BE01C60109952196D8
:101D6000EFCF0688F789E02DC601DF91CF911F9153
:101D70000F91FF90EF90DF90CF90BF90AF909F902A
:101D80008F907F906F905F904F9009948F929F9269
:101D9000AF92BF92CF92DF92EF92FF920F931F9379
:101DA000CF93DF93EC015B014A016901E881F9817E
:101DB0000284F385E02D099595012C0D3D1D2150E0
:101DC0003109E881F9810488F589E02D78018401E1
:101DD000A401B501CE010995E881F9810688F7894A
:101DE000E02DCE01DF91CF911F910F91FF90EF90E9
:101DF000DF90CF90BF90AF909F908F9009948F927B
:101E00009F92AF92BF92CF92DF92EF92FF920F9389
:101E10001F93CF93DF93EC015B014A0169017801C5
:101E2000E881F9810284F385E02D0995C80CD91C5D
:101E3000860101501109E881F9810488F589E02DB6
:101E40009501A401B501CE010995E881F9810688C3
:101E5000F789E02DCE01DF91CF911F910F91FF9077
:101E6000EF90DF90CF90BF90AF909F908F900994AC
:101E7000EF92FF920F931F93DC01ED91FC9100A074
:101E8000F1A1E02D09951F910F91FF90EF9008951A
:101E90000F931F93DC01ED91FC91068CF78DE02DE3
:101EA00009951F910F9108950F931F93DC01ED91F8
:101EB000FC91048CF58DE02D09951F910F910895EB
:101EC000DC01ED91FC910084F185E02D09942F92C5
:101ED0003F924F925F926F927F928F929F92AF92BA
:101EE000BF92CF92DF92EF92FF920F931F93CF9307
:101EF000DF9300D000D000D0CDB7DEB73C016A013F
:101F00003E832D83FC82EB825801A41AB50AB7FEEA
:101F100003C0B194A194B1088D809E80861A970A5F
:101F200097FE03C09194819491088A149B045CF0FD
:101F3000902F812F0D811E819D838E839C2D8D2D51
:101F40006B01692F782F0C151D055CF09D818E812A
:101F50007E836D83692F782F902F812F8601C92E64
:101F6000D82E1601201A310A2B012D813E81421AEA
:101F7000530A57FE03C0519441945108710137FE32
:101F800003C03FEFE31AF30AF594E7948D819E8135
:101F9000861797075CF5A1E0B0E0BA83A983C01665
:101FA000D1064CF1D301ED91FC910484F585E02D2F
:101FB0002B813C81A8016D817E818A149B041CF0D9
:101FC0004D815E81B801C3010995E418F508F7FE5B
:101FD0000AC02D813E8189819A81280F391F3E8355
:101FE0002D83E20CF31C0F5F1F4FD9CF2FEF3FEF74
:101FF0003A832983D4CF26960FB6F894DEBF0FBE5E
:10200000CDBFDF91CF911F910F91FF90EF90DF90A7
:10201000CF90BF90AF909F908F907F906F905F9088
:102020004F903F902F900895089590E080E008959C
:102030000F931F93CF938C01C62F81E08093660589
:1020400080E580938805109267051092890590E0DD
:1020500080E00E947B0AC8010E947B0A6C2F87E205
:1020600096E00E944C0A81E00E94060965E070E05B
:1020700080E090E0CF911F910F910C944005CF929A
:10208000DF92EF92FF920F931F938C0181E0809378
:10209000660580E580938805109267051092890592
:1020A00090E080E00E947B0AC8010E947B0A81E0E8
:1020B0000E9406090E941B056B017C01809160054E
:1020C000811163C081E08093600580935F059FEF7D
:1020D00090935E0510925D0510925C0580933B0520
:1020E00080913B05806A80933B0580913A05813061
:1020F00009F082C010923A050E941B056B017C0119
:1021000080913B058093BB008091620590916305AF
:10211000A0916405B0916505892B8A2B8B2BA1F0CA
:102120000E941B05009162051091630520916405D2
:10213000309165056C197D098E099F0906171707EF
:102140002807390708F442C08091BC0083FDD8CF2E
:1021500085EC8093BC000E941B056B017C01809183
:102160006005813009F44AC080915D05811168C025
:1021700080915D05ECE3F5E0A8E5B4E090E0981708
:1021800051F121912D939F5FFACF8091620590913B
:102190006305A0916405B0916505892B8A2B8B2B73
:1021A00009F48CCF0E941B05009162051091630514
:1021B00020916405309165056C197D098E099F0990
:1021C000061717072807390708F078CF80916105AF
:1021D0000E94E50880E0109205058093040588239D
:1021E00089F187E296E00E94050A1F910F91FF9006
:1021F000EF90DF90CF90089585EEABCF8091620590
:1022000090916305A0916405B0916505892B8A2B97
:102210008B2B09F4A4CF0E941B050091620510913D
:10222000630520916405309165056C197D098E095F
:102230009F09061717072807390708F090CFC6CF60
:1022400081E098CF80E0D1CFCF93DF93EC010E9463
:102250003F1061E0680FCE01DF91CF910C94181010
:10226000E8E0F1E088EF91E0DF019C011D92215050
:102270003040E1F710927B0680917C06833508F4AC
:1022800083E580937C0610927D0680917E068F32D6
:1022900008F48FE280937E06109265061092640621
:1022A00010926706109266060895FC018081918164
:1022B000009711F00C94762408950E94BC25FB0130
:1022C00001900020E9F73197AF01461B570BDC0165
:1022D000ED91FC910280F381E02D09948F929F9201
:1022E000AF92BF92EF92FF920F931F93CF93DF9322
:1022F000CDB7DEB7A1970FB6F894DEBF0FBECDBF46
:102300007C01FA01CB0119A2223008F42AE08E01E7
:102310000F5D1F4F822E912CB12CA12CBF01A50166
:1023200094010E949E23F901CA016A300CF5605D98
:10233000D8016E938D01232B242B252B79F790E068
:1023400080E0109721F0BD01C7010E945F11A196A6
:102350000FB6F894DEBF0FBECDBFDF91CF911F91B6
:102360000F91FF90EF90BF90AF909F908F90089546
:10237000695CDECF4F925F926F927F928F929F92B5
:10238000AF92BF92CF92DF92EF92FF920F931F9383
:10239000CF936B017C01742EAC019B010E945023F2
:1023A00068E673E0811126C046015701E894B7F84A
:1023B0002FEF3FEF4FE75FE7C501B4010E945023C5
:1023C00081110CC02FEF3FEF4FE75FE7C501B4016C
:1023D0000E946E206CE673E0181664F02FEF3FEF5A
:1023E0004FE75FE4C701B6010E94FB221816ACF468
:1023F00060E773E089E396E0CF911F910F91FF9022
:10240000EF90DF90CF90BF90AF909F908F907F9094
:102410006F905F904F900C945F112FEF3FEF4FE75D
:102420005FECC701B6010E946E2087FDE1CF20E07E
:1024300030E0A901C701B6010E946E2010E000E063
:1024400087FF0AC06DE289E396E00E94B4068C0122
:10245000F7FAF094F7F8F094C0E060E070E080E004
:102460009FE37C1641F020E030E040E251E40E941E
:102470005322CF5FF6CFA70196010E94E7212B01DF
:102480003C010E94CC224B015C012AE0BC01A4016A
:1024900089E396E00E946E117C01E00EF11ECC23D0
:1024A000D1F1C501B4010E9473209B01AC01C301AD
:1024B000B2010E94E6214B015C016EE289E396E0E5
:1024C0000E94B406E80EF91EC15028F120E030E069
:1024D00040E251E4C501B4010E94D4202B013C012B
:1024E0000E94CC224B01B12CA12C2AE0B501A40101
:1024F00089E396E00E946E11E80EF91EC501B40151
:102500000E9473209B01AC01C301B2010E94E6212D
:102510004B015C01D9CFC701CF911F910F91FF9063
:10252000EF90DF90CF90BF90AF909F908F907F9073
:102530006F905F904F9008950F931F93CF93DF9309
:10254000EC010E945F118C0164E773E0CE010E94F0
:102550005F11800F911FDF91CF911F910F9108950F
:102560000C945F110F931F93CF93DF93EC0188813D
:102570009981009759F02A813B812617370730F05F
:1025800081E0DF91CF911F910F9108958B016F5FD3
:102590007F4F0E94FF24009759F0998388831B8303
:1025A0000A832C813D81232B59F7FC011082E8CF4F
:1025B00080E0E7CFEF92FF920F931F93CF93DF93CB
:1025C000FB0101900020E9F73197E61BF70BE1F0E2
:1025D0007B018C01DC011496CD91DC91CE0FDF1FC5
:1025E000BE010E94B212882381F0F801208131815E
:1025F00084819581B701820F931F0E94D525D80150
:102600001596DC93CE93149781E0DF91CF911F91C3
:102610000F91FF90EF900895EF92FF920F931F9309
:10262000CF93DF93EC017B018A01BA010E94B212C1
:1026300028813981811114C02115310519F0C90192
:102640000E947624198218821D821C821B821A82A3
:10265000CE01DF91CF911F910F91FF90EF900895E0
:102660001D830C83B701C9010E94D525F1CFFB0161
:1026700001900020E9F73197AF01461B570B0C94EE
:102680000C13FC01118210821382128215821482B3
:10269000FB0101900020E9F73197AF01461B570B72
:1026A0000C940C13AF92BF92CF92DF92EF92FF92F5
:1026B0000F931F93CF93DF93EC015B016A017901C4
:1026C0002417350720F48D2D6901E42EF82E66E7D6
:1026D00073E0CE010E944113D50114960D911C9117
:1026E000C016D106E8F4E016F10608F48701D5011A
:1026F000ED91FC911197E00FF11FF08010826D9128
:102700007C916C0D7D1D61157105B1F0CE010E94AB
:102710003713F50180819181080F191FD801FC92B0
:10272000CE01DF91CF911F910F91FF90EF90DF903D
:10273000CF90BF90AF90089588819981009711F054
:102740000E947624198218821D821C821B821A82A2
:10275000E0CF1F93CF93DF93EC01162F66E773E072
:102760000E94411310FF05C067E773E0CE010E948D
:10277000DA1211FF05C06BE773E0CE010E94DA1296
:1027800012FF05C06FE773E0CE010E94DA1213FF5B
:1027900005C063E873E0CE010E94DA128C819D814E
:1027A000892B29F467E873E0CE010E943713CE012C
:1027B000DF91CF911F910895CF93DF93EC016130AA
:1027C00049F46CE873E0CE010E944113CE01DF9121
:1027D000CF910895623019F46FE873E0F4CF63305D
:1027E00019F462E973E0EFCF643019F465E973E03E
:1027F000EACF67E873E0E7CF85ED8093BC00809176
:10280000620590916305A0916405B09165050796F6
:10281000A11DB11D23E0B695A795979587952A959B
:10282000D1F72091BC0024FD03C0109260050895EB
:102830004091620550916305609164057091650552
:10284000452B462B472B69F30097A105B10541F0B5
:102850002AE22A95F1F700C00197A109B109E1CF59
:10286000809161050C94E5081F920F920FB60F92AC
:1028700011242F933F938F939F93AF93BF93809196
:10288000320590913305A0913405B0913505309112
:10289000310523E0230F2D3758F50196A11DB11DF9
:1028A000209331058093320590933305A09334052E
:1028B000B09335058091360590913705A091380584
:1028C000B09139050196A11DB11D809336059093F5
:1028D0003705A0933805B0933905BF91AF919F910B
:1028E0008F913F912F910F900FBE0F901F901895D1
:1028F00026E8230F0296A11DB11DD2CF1F920F9281
:102900000FB60F9211242F933F934F935F936F93C2
:102910007F938F939F93AF93BF93EF93FF938AE837
:1029200095E00E940C06FF91EF91BF91AF919F91AE
:102930008F917F916F915F914F913F912F910F9068
:102940000FBE0F901F9018951F920F920FB60F9207
:1029500011242F938F939F93EF93FF93E0919A0508
:10296000F0919B058081E091A005F091A10582FD89
:102970001BC090818091A3058F5F8F732091A40568
:10298000821741F0E091A305F0E0E657FA4F958FEA
:102990008093A305FF91EF919F918F912F910F90BD
:1029A0000FBE0F901F9018958081F4CF1F920F9249
:1029B0000FB60F9211242F933F934F935F936F9312
:1029C0007F938F939F93AF93BF93EF93FF93E09188
:1029D000FE04F091FF04309749F0A685B785858500
:1029E000968D91FF14C09C918923A1F4FF91EF91E2
:1029F000BF91AF919F918F917F916F915F914F9117
:102A00003F912F910F900FBE0F901F9018959C91A2
:102A1000892361F7A389B4899C918589809589234D
:102A20008C93868997890197F1F7608D718DA685C2
:102A3000B785558538E020E0CB010197F1F7822F6B
:102A400090E095958795282F4C91452309F02068B3
:102A5000315091F7868D81FD20958091FD0490E0A5
:102A600001968F7399273091FC04381799F0A09143
:102A7000FD04B0E0A454BB4F2C938093FD04828DE1
:102A8000938D0197F1F7A389B4898C919589892B4E
:102A90008C93ACCF868D8160868FF1CF1F920F9281
:102AA0000FB60F9211242F933F934F935F936F9321
:102AB0007F938F939F93AF93BF93EF93FF938091F7
:102AC000B900887F803609F44AC0F0F5883209F4ED
:102AD000A7C018F5803109F49BC0B8F4882309F425
:102AE000F9C0883009F494C0FF91EF91BF91AF9184
:102AF0009F918F917F916F915F914F913F912F9116
:102B00000F900FBE0F901F901895883109F488C060
:102B1000803251F780935E0514C0803409F49DC063
:102B200040F48033B9F38833F9F680935E0585EC81
:102B3000B0C0803509F485C0883509F496C0883462
:102B400099F60E94FC13D0CF883909F48CC038F56F
:102B5000883729F050F4883611F0803729F683E061
:102B6000809360051092BB0457C0883809F47BC07D
:102B7000803919F0803809F0B7CF8091BB048032DA
:102B800008F071C0E091BB0481E08E0F8093BB041C
:102B90008091BB00F0E0E556FB4F80833DC0803B59
:102BA00039F0E0F4803A09F479C0883A09F09CCF12
:102BB00084E08093600510929A0410929904E09149
:102BC0000205F091030509958091990481110FC0C8
:102BD00081E0809399041092790409C0803C09F443
:102BE000A6CF883C09F4A3CF883B09F07DCFE091C4
:102BF0009A0481E08E0F80939A04F0E0E758FB4F2F
:102C000080818093BB0090919A048091990429C09F
:102C100080913B058093BB0085EC8093BC0064CF22
:102C200090915D0580915C05981758F5E0915D05E0
:102C300081E08E0F80935D05F0E0E45CFA4F8081C7
:102C4000E9CFE0915D0581E08E0F80935D05809175
:102C5000BB00F0E0E45CFA4F808390915D058091C9
:102C60005C059817C8F285E8D8CFE0915D0581E052
:102C70008E0F80935D058091BB00F0E0E45CFA4F1D
:102C8000808380915F0581115CCF81E080933A055C
:102C900084EA8093BC001092600526CF85EC809377
:102CA000BC00109260058091BB04803230F4E0914A
:102CB000BB04F0E0E556FB4F10826091BB0470E06E
:102CC000E0910005F09101058BE994E009951092DF
:102CD000BB040ACF10925E0534CFCF92DF92EF9201
:102CE000FF92CF9310928D0510928C0598EEC92E0D
:102CF00093E0D92EE12CF12CC0928E05D0928F0555
:102D0000E0929005F09291058AE093E090938B0514
:102D100080938A0585EC90E09093970580939605C3
:102D200084EC90E0909399058093980580EC90E076
:102D300090939B0580939A0581EC90E090939D057C
:102D400080939C0582EC90E090939F0580939E0574
:102D500086EC90E09093A1058093A0051092A305C6
:102D60001092A4051092A5051092A60510922A06AD
:102D700010922906C0922B06D0922C06E0922D06C6
:102D8000F0922E068CE193E090932806809327061C
:102D900010925B0610925A0624E530E030935D06EF
:102DA00020935C0680E390E090935F0680935E063C
:102DB00030936106209360069093630680936206C9
:102DC00010926E06109265061092640610926706C5
:102DD00010926606C1E0C0936D06C0936C068FEF3B
:102DE0009FEF90936B0680936A0690936906809399
:102DF0006806C0936F0610927006109272061092C9
:102E0000710680E493E090935906809358068CE114
:102E100090E00E94DA23DC0111961C921E92139618
:102E20001C921E92129786E01B968C931B978DE046
:102E30001C968C931C978FEF1E968C931E978BE09D
:102E40001D968C931D97E9E4F6E0E491F0E0EE0F17
:102E5000FF1FE75CF94F8591949156969C938E9352
:102E60005597EBE2F6E0E4915A96EC935A97EEE42C
:102E7000F6E0E491F0E0EE0FFF1FE75CF94F85917B
:102E8000949150969C938E931F97E0E3F6E0E49123
:102E90005796EC935797E0E5F6E0E491F0E0EE0FFB
:102EA000FF1FE75CF94F8591949152969C938E9306
:102EB0005197E2E3F6E0E4915996EC93599740E09C
:102EC00059E06DE370E014964D935D936D937C93A0
:102ED000179781E090E019969C938E9318971A9615
:102EE0001C921A975B961C925B97B0937406A09302
:102EF000730687E08093760685E0809375061092CE
:102F00003C0610923B06C0923D06D0923E06E092EF
:102F10003F06F09240068EE293E090933A0680934B
:102F200039061092500610924F06109252061092D7
:102F300051061092540610925306109256061092A3
:102F40005506609157066E7F6D7F609357066695B4
:102F500061706C2783E00E94620361E083E00E945D
:102F6000AE03E8E2F6E0E491E0934906E6E4F6E039
:102F7000E491F0E0EE0FFF1FE75CF94F859194912B
:102F800090934B0680934A0660E082E00E94AE0375
:102F90008091570681FD04C061E082E00E946203D7
:102FA00082E080934506E7E2F6E0E491E09346068E
:102FB000E5E4F6E0E491F0E0EE0FFF1FE55EF94F87
:102FC00085919491909348068093470666E773E055
:102FD00083E396E0CF91FF90EF90DF90CF900C9439
:102FE0004113CF93DF93CDB7DEB7AC970FB6F8940C
:102FF000DEBF0FBECDBF789484B5826084BD84B53A
:10300000816084BD85B5826085BD85B5816085BDE3
:1030100080916E00816080936E001092810080919B
:103020008100826080938100809181008160809323
:103030008100809180008160809380008091B10048
:1030400084608093B1008091B00081608093B00073
:1030500080917A00846080937A0080917A00826007
:1030600080937A0080917A00816080937A008091C9
:103070007A00806880937A001092C100E0919A05EE
:10308000F0919B0582E08083E0919605F091970591
:103090001082E0919805F09199058FEC8083109251
:1030A000A205E0919E05F0919F0586E08083E09166
:1030B0009C05F0919D05808180618083E0919C0555
:1030C000F0919D05808188608083E0919C05F0915E
:1030D0009D05808180688083E0919C05F0919D052D
:1030E00080818F7D80831092540610925306109237
:1030F0005206109251061092500610924F068DE91A
:1031000091E090935606809355069091450696312E
:1031100008F047C02DEB30E03093500620934F0667
:103120002BE931E030935206209351062CE231E036
:1031300030935406209353062091680084E0983021
:1031400048F031E09E3008F430E081E001C0880FA3
:103150003A95EAF7822B809368002DE630E09830AC
:1031600050F02BE630E09E3030F02CE630E0963127
:1031700010F030E020E030934D0620934C06292FCC
:1031800030E0983008F055C181E001C0880F9A9571
:10319000EAF780934E068091550690915606019766
:1031A000F1F78091530690915406892B49F1E091F3
:1031B000FE04F091FF0426E0E933F20709F13097AD
:1031C00039F0A389B4899C918589809589238C9352
:1031D000809157068E7F809357061092FD041092BF
:1031E000FC0489E396E09093FF048093FE04E09151
:1031F0004C06F0914D06808190914E06892B80837C
:103200001092050510920405109267051092890529
:103210000E94C7088EE795E090930305809302050E
:103220008FE795E0909301058093000561E088E0C9
:103230000E94AE0360E088E00E9462036FE973E0E1
:1032400089E396E00E949C1261EB73E089E396E0CB
:103250000E949C120091730610917406F8018385F8
:103260008F3F41F061E00E94AE0361E0F801838589
:103270000E946203F80180819181892B09F4E6C0E4
:10328000FFB6F89480910605811127C0EDE4F6E0C1
:103290008491EFE2F6E09491E82FF0E0EE0FFF1F4B
:1032A000E350FA4FA591B491EC91E92321F461E048
:1032B0008AE00E94620361E08AE00E94AE038CB55E
:1032C00080618CBD8CB580648CBD61E08DE00E9416
:1032D000AE0361E08BE00E94AE03809106058F5F34
:1032E00080930605FFBE81E0F801838F61E0809145
:1032F00076060E94AE038091750687FD03C061E0EB
:103300000E94AE0384E08093780688E2809377067B
:103310001092790610927A060E947C0710927B0622
:1033200080917C06833508F483E580937C061092B7
:103330007D0680917E068F3208F48FE280937E06B0
:103340000E94BA0782E30E9465070E943011109222
:1033500065061092640610926706109266066EEC7F
:1033600073E088E596E00E949C126BEA73E088E5C2
:1033700096E00E949C120E94BA0768EE73E080E01B
:1033800090E00E9440057E01F1E2EF0EF11C8AE818
:1033900095E00E94EC05892B09F40FC28AE895E0BC
:1033A0000E94CA058A3009F0DDC118A61FA21AA61C
:1033B00019A61CA61BA660913306709134066115F0
:1033C000710541F04091370650913806CE0187963D
:1033D0000E940C13AFA0B8A4A114B10439F00BA53E
:1033E0001CA565010115110509F053C08BA59CA50D
:1033F0000A97E8F09E012F5F3F4F5901D12CC12C55
:103400008BA59CA5C816D90690F48FA098A46CE251
:1034100070E0C4018C0D9D1D0E94CA25009739F0F3
:103420008C01081919090F3F100709F068C010E056
:103430002AC19E3040F42850310981E001C0880F34
:103440002A95EAF7A6CE2E503109F7CF61E08485A0
:103450000E94AE03F80182858B7F60E009F061E095
:1034600084850E946203F80185858F3F41F061E009
:103470000E94AE0361E0F80185850E946203F801B5
:1034800086858F3F09F42FCF60E00E94AE032BCFDB
:10349000640146012FEF821A920AF6018081082EFC
:1034A000000C990B0E944D20892B91F701501109B6
:1034B0000A0D1B1DF8018081082E000C990B0E943B
:1034C0004D20892B31F00C151D0518F00150110904
:1034D000F1CFA8014F5F5F4F4C195D095CA74BA767
:1034E000AC14BD0420F4B601C5010E94C125EFA1B2
:1034F000F8A58BA59CA5E80FF91F108277CF98013E
:10350000A601BE01695D7F4FC7010E94521389A1C8
:103510009AA1009709F4F7C00E94BD1EF5016193BE
:103520007193819391935F016801FFEFCF1ADF0AD6
:10353000C7010E945511EA14FB0409F061CF8BA565
:103540009CA5C816D90608F072CF0FA118A56CE289
:1035500070E0C8018C0D9D1D0E94CA25009709F4DA
:1035600066CF9C01201B310B89010F3F100709F426
:103570005ECF9801A601BE01695D7F4FC7010E9421
:10358000521389A19AA160E0009711F00E94C11E18
:1035900060932C05C7010E9455112BA53CA5A801DD
:1035A0004F5F5F4FBE01695D7F4FC7010E9452139D
:1035B00089A19AA160E0009711F00E94C11E60935A
:1035C0002B05C7010E94551189819A81AB81BC816D
:1035D0008093270590932805A0932905B0932A0589
:1035E0008D819E81AF81B8858093230590932405BA
:1035F000A0932505B093260589859A85AB85BC8562
:1036000080931F0590932005A0932105B093220578
:103610008D859E85AF85B88980931B0590931C0589
:10362000A0931D05B0931E0589899A89AB89BC8931
:103630008093170590931805A0931905B0931A0568
:103640006D897E898F89988D0E94C5227093160599
:1036500060931505898D9A8DAB8DBC8D8093110576
:1036600090931205A0931305B09314058D8D9E8D34
:10367000AF8DB8A18093000190930101A093020146
:10368000B093030111E0CE0187960E9455111123DA
:1036900009F451C010912C05112309F460C08091E8
:1036A0000B051817A1F190E080E00E942411612F12
:1036B0008AE090E00E9418106091150584E190E086
:1036C0000E94181060910001709101018091020127
:1036D000909103010E94CC228EE190E00E9418108C
:1036E000113081F588E290E00E94241110930B05BF
:1036F0000E94720560930705709308058093090581
:1037000090930A0518C060E070E0CB0107CF0E94DB
:1037100072058090070590900805A0900905B0906B
:103720000A05681979098A099B0969387341810575
:10373000910508F0B8CF66E773E083E396E00E9456
:10374000371325CE82E390E0123071F28CE390E0E3
:10375000133051F2143051F686E490E0C5CF109248
:103760000B05E9CF89831A8200913706109138063C
:103770000F5F1F4FB80183E396E00E94B2128823C7
:1037800099F020913306309134068091370690915C
:103790003806BE016F5F7F4F820F931F0E94D525B1
:1037A00010933806009337068091370690913806BB
:1037B0008536910508F4EBCDBECF80E480937C0084
:1037C00080917A00806480937A0080917A0086FDEF
:1037D000FCCF6091780070917900CB010697843F0F
:1037E000934008F05BC0072E000C880B990B0E94D9
:1037F00075209B01AC0160E070EC8FE794E40E94BF
:10380000532220E030E040E85FE30E94E62120E020
:1038100030E44CE156E40E94D4204B015C0120E0EE
:1038200030E0A9010E946E201816C4F520E030E4B3
:103830004CE156E4C501B4010E9453220E940823C2
:1038400020E030EE46E755E40E9453222FE03FECA3
:103850004BE55BE30E94E7219B01AC0160E070E077
:1038600080E89FE30E94532223E333E948E853E4CE
:103870000E94E6214B015C0120E030E040EA51EC7F
:103880000E946E2087FD0AC020E030E040EF52E445
:10389000C501B4010E94FB22181634F4812C912C2E
:1038A00058ECA52E51E4B52E8092040190920501AA
:1038B000A0920601B092070110912C0520E030E0A3
:1038C00040E752E4C501B4010E94FB2218160CF037
:1038D0004DC01123F1F03AEF832E912CA12CB12C85
:1038E0001130E9F02CEB822E22E0922EA12CB12C8B
:1038F0001230A9F096E9892E912CA12CB12C13300D
:1039000071F044EF842E99249394A12CB12C14309F
:1039100031F488EE882E83E0982EA12CB12C0E94E1
:10392000720500910C0510910D0520910E05309146
:103930000F05601B710B820B930B681579058A05C7
:103940009B05E0F06091100581E068276093100509
:1039500088E00E9462030E94720560930C057093D8
:103960000D0580930E0590930F0508C01111B3CF7C
:1039700060E088E00E946203109210050E947205C8
:1039800000912D0510912E0520912F0530913005C5
:10399000601B710B820B930B693E7340810591058F
:1039A00008F41DC167ED73E089E396E00E94B01250
:1039B00060912705709128058091290590912A052D
:1039C00042E00E94BA116BED73E089E396E00E9439
:1039D000B012609123057091240580912505909186
:1039E000260542E00E94BA1160EE73E089E396E09A
:1039F0000E94B01260911F057091200580912105F1
:103A00009091220542E00E94BA1165EE73E089E3CD
:103A100096E00E94B01260911B0570911C05809188
:103A20001D0590911E0542E00E94BA116AEE73E0F6
:103A300089E396E00E94B012609117057091180515
:103A40008091190590911A0542E00E94BA1161EF28
:103A500073E089E396E00E94B01280901505909083
:103A60001605092C000CAA08BB082AE0B501A40120
:103A7000B7FE0DC06DE289E396E00E94B4064427CC
:103A80005527BA01481959096A097B092AE089E3CF
:103A900096E00E946E1167EF73E089E396E00E9462
:103AA000B0126091110570911205809113059091EB
:103AB000140542E00E94BA116BEF73E089E396E0CF
:103AC0000E94B01260910001709101018091020189
:103AD0009091030141E00E94BA1163E074E089E330
:103AE00096E00E94B01260910401709105018091EE
:103AF00006019091070141E00E94BA116AE074E06A
:103B000089E396E00E94B01260912C05CE010196E7
:103B10000E94DC13BE016F5F7F4F89E396E00E9435
:103B20008005CE0101960E94551162E174E089E39F
:103B300096E00E94B01260912B05CE0101960E9482
:103B4000A913BE016F5F7F4F89E396E00E94800555
:103B500064E773E089E396E00E945F11CE0101966D
:103B60000E94551168E174E089E396E00E94B0126A
:103B700090E080E00E943F10482F50E070E060E04D
:103B80002AE089E396E00E946E116CE274E089E31A
:103B900096E00E94B0128AE090E00E943F10682FE9
:103BA000CE0101960E94DC13BE016F5F7F4F89E357
:103BB00096E00E94800564E773E089E396E00E9446
:103BC0005F11CE0101960E9455110E94720560930B
:103BD0002D0570932E0580932F05909330050E943C
:103BE00030111092650610926406109267061092CA
:103BF000660669E374E088E596E00E94B012609181
:103C00002C05CE0101960E94DC13BE016F5F7F4F31
:103C100088E596E00E948005CE0101960E9455112C
:103C200010926506109264068AE090E09093670611
:103C30008093660660E474E088E596E00E94B01226
:103C400060912B05CE0101960E94A913BE016F5F02
:103C50007F4F88E596E00E948005CE0101960E9484
:103C60005511109265061092640686E190E09093DB
:103C700067068093660665E474E088E596E00E9436
:103C8000B01290E080E00E943F10482F50E070E0BA
:103C900060E02AE088E596E00E946E1110926506C9
:103CA0001092640682E290E0909367068093660625
:103CB0006BE474E088E596E00E94B0128AE090E040
:103CC0000E943F10682FCE0101960E94DC13BE01B6
:103CD0006F5F7F4F88E596E00E948005CE010196D8
:103CE0000E94551110926506109264068CE290E0D5
:103CF000909367068093660661E574E088E596E038
:103D00000E94B01280912C0568E973E0811102C015
:103D10006BE973E088E596E00E94B0120E94BA0752
:103D200080E090E0892B09F432CB0E94F8058823CB
:103D300009F42DCB0E9400002ACB83E396E00E9479
:103D400055118EE293E090933A0680933906809164
:103D5000FE049091FF048953964071F4E0914C0663
:103D6000F0914D06908180914E0680958923808345
:103D70001092FF041092FE040895662777270C9492
:103D8000FD1E1F93FC0199278827BC01E89411911F
:103D90001032E9F3193010F01E30C8F31B3251F025
:103DA0001D3249F4689406C00E94E81E610F711D1F
:103DB000811D911D119110531A30B0F33EF490956E
:103DC0008095709561957F4F8F4F9F4F1F910895FC
:103DD000592F482F372F262F660F771F881F991FBF
:103DE000660F771F881F991F620F731F841F951F0F
:103DF000660F771F881F991F0895B0E0A0E0E3E0E9
:103E0000FFE10C94A6215C017B016115710519F09D
:103E1000DB018D939C9385010F5F1F4FF501D081CE
:103E20008D2F90E00E944D206C01892BB9F5DD3279
:103E3000B9F50F5F1F4FD5011196DC91C1E0580114
:103E4000F1E0AF1AB10843E050E06AEC70E0C50160
:103E50000E945620892B69F5680182E0C80ED11CAA
:103E600045E050E065EC70E0C6010E945620892BC9
:103E700021F4680197E0C90ED11CE114F10419F096
:103E8000D701CD92DC9260E070E080E89FEFC11135
:103E9000FFC060E070E080E89FE7FAC05801BBCF48
:103EA000DB3229F485010E5F1F4FF501D181C0E09F
:103EB000C6CF43E050E062EC70E0C5010E9456209E
:103EC000892BE9F0F80110E000E020E030E0A901E2
:103ED0005F01B0ED8B2E8D0E89E08815C8F19C2E08
:103EE000689491F88C2F8870C2FF16C0811102C0AF
:103EF0000F5F1F4F3196D501DC91C92DE9CFE11439
:103F0000F10429F00E5F1F4FF7011183008360E079
:103F100070E080EC9FE7BCC0882311F001501109CC
:103F2000A5E0B0E00E9495219B01AC01220F331F58
:103F3000441F551F280D311D411D511D283999E978
:103F40003907490799E15907A8F2C6609C2ED2CFDC
:103F5000AEEF8A1206C0C3FD3CC09C2E689493F855
:103F6000C9CFDF7DD534A9F580818D3239F4C061A8
:103F7000DF011296818162E070E006C0DF018B32C2
:103F8000C1F3119661E070E080535D01A61AB70A93
:103F90008A30F8F4E0E8CE16ECE0DE065CF4B60118
:103FA000660F771F660F771FC60ED71ECC0CDD1C61
:103FB000C80ED11C5D01FFEFAF1ABF0A8C91805370
:103FC0008A30A8F1C4FF03C0D194C194D1080C0D6C
:103FD0001D1DC1FF09C0E114F10431F081E0A81AF0
:103FE000B108D701AD92BC92CA01B9010E947320F9
:103FF000C370C33009F490584B015C0120E030E0FD
:10400000A9010E946E20882309F440C0C9EFD0E0C6
:1040100017FF05C0119501951109C1EED0E06E01A1
:10402000B8E1CB1AD10880E2E82EF12C0FC0D501FF
:10403000B1CFFE0125913591459154910E191F097B
:10404000C501B4010E94D4204B015C01D501C4011B
:104050000E151F0574F72497F594E794CC16DD062A
:10406000A9F78A2F880F8B2F881F8F3F49F020E0F8
:1040700030E0A901C501B4010E946E20811106C083
:1040800082E290E09093800680937F06C501B401A0
:10409000CDB7DEB7ECE00C94C22191110C94412114
:1040A000803219F089508550C8F70895FB01DC0172
:1040B0004150504088F08D9181341CF08B350CF4C8
:1040C000805E659161341CF06B350CF4605E861B7C
:1040D000611171F3990B0895881BFCCF0E94B020E9
:1040E00008F481E00895E89409C097FB3EF49095A8
:1040F0008095709561957F4F8F4F9F4F9923A9F0C1
:10410000F92F96E9BB279395F6958795779567954F
:10411000B795F111F8CFFAF4BB0F11F460FF1BC093
:104120006F5F7F4F8F4F9F4F16C0882311F096E926
:1041300011C0772321F09EE8872F762F05C06623D4
:1041400071F096E8862F70E060E02AF09A95660F8D
:10415000771F881FDAF7880F9695879597F9089546
:10416000990F0008550FAA0BE0E8FEEF1616170688
:10417000E807F907C0F012161306E407F50798F0F0
:10418000621B730B840B950B39F40A2661F0232B09
:10419000242B252B21F408950A2609F4A140A69585
:1041A0008FEF811D811D08950E94E7200C945B21F3
:1041B0000E944D2138F00E94542120F0952311F0E7
:1041C0000C9444210C944A2111240C948F210E94B8
:1041D0006C2170F3959FC1F3950F50E0551F629FBE
:1041E000F001729FBB27F00DB11D639FAA27F00D50
:1041F000B11DAA1F649F6627B00DA11D661F829F77
:104200002227B00DA11D621F739FB00DA11D621F5B
:10421000839FA00D611D221F749F3327A00D611D78
:10422000231F849F600D211D822F762F6A2F11245A
:104230009F5750409AF0F1F088234AF0EE0FFF1F8D
:10424000BB1F661F771F881F91505040A9F79E3FE4
:10425000510580F00C9444210C948F215F3FE4F3CE
:10426000983ED4F3869577956795B795F795E7953A
:104270009F5FC1F7FE2B880F911D9695879597F943
:10428000089599278827089597F99F6780E870E037
:1042900060E008959FEF80EC089500240A941616BC
:1042A000170618060906089500240A941216130624
:1042B000140605060895092E0394000C11F48823B2
:1042C00052F0BB0F40F4BF2B11F460FF04C06F5FCE
:1042D0007F4F8F4F9F4F089557FD9058440F551FA4
:1042E00059F05F3F71F04795880F97FB991F61F078
:1042F0009F3F79F087950895121613061406551FEF
:10430000F2CF4695F1DF08C0161617061806991F5A
:10431000F1CF86957105610508940895E894BB274F
:1043200066277727CB0197F908950E94D721A59F8B
:10433000900DB49F900DA49F800D911D11240895A0
:104340002F923F924F925F926F927F928F929F92A5
:10435000AF92BF92CF92DF92EF92FF920F931F9393
:10436000CF93DF93CDB7DEB7CA1BDB0B0FB6F89444
:10437000DEBF0FBECDBF09942A88398848885F8484
:104380006E847D848C849B84AA84B984C884DF80F5
:10439000EE80FD800C811B81AA81B981CE0FD11DD9
:1043A0000FB6F894DEBF0FBECDBFED010895A29FFA
:1043B000B001B39FC001A39F700D811D1124911DF9
:1043C000B29F700D811D1124911D08955058BB2777
:1043D000AA270E94FE210C945B210E944D2138F0F7
:1043E0000E94542120F039F49F3F19F426F40C94D4
:1043F0004A210EF4E095E7FB0C944421E92F0E943A
:104400006C2158F3BA17620773078407950720F0E9
:1044100079F4A6F50C948E210EF4E0950B2EBA2FAC
:10442000A02D0B01B90190010C01CA01A0011124BA
:10443000FF27591B99F0593F50F4503E68F11A1666
:10444000F040A22F232F342F4427585FF3CF4695F7
:1044500037952795A795F0405395C9F77EF41F1619
:10446000BA0B620B730B840BBAF09150A1F0FF0FE3
:10447000BB1F661F771F881FC2F70EC0BA0F621FCF
:10448000731F841F48F4879577956795B795F795BF
:104490009E3F08F0B0CF9395880F08F09927EE0F54
:1044A0009795879508950E9467220C945B210E943E
:1044B000542158F00E944D2140F029F45F3F29F02B
:1044C0000C94442151110C948F210C944A210E9488
:1044D0006C2168F39923B1F3552391F3951B550B88
:1044E000BB27AA2762177307840738F09F5F5F4FC7
:1044F000220F331F441FAA1FA9F335D00E2E3AF006
:10450000E0E832D091505040E695001CCAF72BD01D
:10451000FE2F29D0660F771F881FBB1F261737076E
:104520004807AB07B0E809F0BB0B802DBF01FF27A0
:1045300093585F4F3AF09E3F510578F00C94442118
:104540000C948F215F3FE4F3983ED4F386957795E2
:104550006795B795F7959F5FC9F7880F911D969559
:10456000879597F90895E1E0660F771F881FBB1FB5
:10457000621773078407BA0720F0621B730B840B62
:10458000BA0BEE1F88F7E09508950E94CC2268943C
:10459000B1110C948F2108950E94742188F09F57C7
:1045A00098F0B92F9927B751B0F0E1F0660F771F57
:1045B000881F991F1AF0BA95C9F714C0B13091F04D
:1045C0000E948E21B1E008950C948E21672F782FE0
:1045D0008827B85F39F0B93FCCF386957795679512
:1045E000B395D9F73EF490958095709561957F4F7E
:1045F0008F4F9F4F08950E94B02008F48FEF0895C9
:1046000016F00C9455230C944A2168940C94442180
:104610000E947421A8F39923C1F3AEF3DF93CF93E3
:104620001F930F93FF92C92FDD2788232AF021972C
:10463000660F771F881FDAF720E030E040E85FEB75
:104640009FE3883920F0803E38F021968F770E94D2
:10465000E721E8E6F0E004C00E94E721E5E9F0E0A8
:104660000E9463238B01BE01EC01FB2E6F57710981
:104670007595771F880B990B0E94752028E132E70A
:1046800041E35FE30E94E720AF2D9801AE01FF9068
:104690000F911F91CF91DF910E94FE210C945B211D
:1046A0000E94B020880B990B08959F3F31F09150E4
:1046B00020F4879577956795B795880F911D969506
:1046C000879597F90895DF93CF931F930F93FF92E8
:1046D000EF92DF927B018C01689406C0DA2EEF0125
:1046E0000E94E720FE01E894A5912591359145911E
:1046F0005591A6F3EF010E94FE21FE019701A8014A
:10470000DA9469F7DF90EF90FF900F911F91CF91AE
:10471000DF91089597FB072E16F4009407D077FDDC
:1047200009D00E94C02307FC05D03EF490958195E6
:104730009F4F0895709561957F4F0895A1E21A2EBD
:10474000AA1BBB1BFD010DC0AA1FBB1FEE1FFF1F35
:10475000A217B307E407F50720F0A21BB30BE40B85
:10476000F50B661F771F881F991F1A9469F76095CC
:104770007095809590959B01AC01BD01CF01089586
:10478000AA1BBB1B51E107C0AA1FBB1FA617B70777
:1047900010F0A61BB70B881F991F5A95A9F7809593
:1047A0009095BC01CD010895EE0FFF1F0590F49187
:1047B000E02D09940F931F93CF93DF9382309105DF
:1047C00010F482E090E0E0918306F091840630E0FE
:1047D00020E0B0E0A0E0309799F42115310509F40C
:1047E0004AC0281B390B24303105D8F58A819B81BA
:1047F0006115710589F1FB0193838283FE0111C06C
:10480000408151810281138148175907E0F0481710
:10481000590799F4109761F012960C93129713961A
:104820001C933296CF01DF91CF911F910F91089584
:104830000093830610938406F4CF2115310551F0BF
:104840004217530738F0A901DB019A01BD01DF01CE
:10485000F801C1CFEF01F9CF9093840680938306CE
:10486000CDCFFE01E20FF31F8193919322503109C6
:1048700039832883D7CF2091810630918206232B5C
:1048800041F4209102033091030330938206209378
:10489000810620910003309101032115310541F477
:1048A0002DB73EB74091040350910503241B350BEF
:1048B000E0918106F0918206E217F307A0F42E1B27
:1048C0003F0B2817390778F0AC014E5F5F4F241774
:1048D000350748F04E0F5F1F5093820640938106C4
:1048E000819391939FCFF0E0E0E09CCFCF93DF9353
:1048F0000097E9F0FC01329713821282A09183069F
:10490000B0918406ED0130E020E01097A1F4208101
:104910003181820F931F20918106309182062817E2
:10492000390709F061C0F0938206E0938106DF91B8
:10493000CF910895EA01CE17DF07E8F54A815B8140
:104940009E0141155105B1F7E901FB83EA834991C5
:104950005991C40FD51FEC17FD0761F48081918137
:104960000296840F951FE901998388838281938140
:104970009B838A83F0E0E0E012968D919C911397DF
:104980000097B9F52D913C911197CD010296820FB8
:10499000931F20918106309182062817390739F636
:1049A000309751F51092840610928306B0938206D8
:1049B000A0938106BCCFD383C28340815181840FF1
:1049C000951FC817D90761F44E5F5F4F88819981A1
:1049D000480F591F518340838A819B81938382832F
:1049E0002115310509F0B0CFF0938406E0938306DA
:1049F0009ECFFD01DC01C0CF13821282D7CFB0E081
:104A0000A0E0E5E0F5E20C94A2218C01009751F4BE
:104A1000CB010E94DA238C01C801CDB7DEB7E0E1FB
:104A20000C94BE21FC01E60FF71F9C0122503109B6
:104A3000E217F30708F49DC0D901CD91DC911197DD
:104A4000C617D70798F0C530D10530F3CE010497CB
:104A50008617970708F3C61BD70B2297C193D193EC
:104A60006D937C93CF010E947624D6CF5B01AC1A64
:104A7000BD0A4C018C0E9D1EA0918306B091840648
:104A8000512C412CF12CE12C109731F580918106AD
:104A9000909182068815990509F05CC04616570664
:104AA00008F058C08091000390910103009741F4F1
:104AB0008DB79EB74091040350910503841B950B5D
:104AC000E817F90708F055C0F0938206E0938106D5
:104AD000F90171836083A0CF8D919C9111971296FB
:104AE0006C90129713967C901397A815B90559F5F9
:104AF0006C0142E0C40ED11CCA14DB0420F1AC01ED
:104B00004A195B09DA011296159780F06282738266
:104B100051834083D9016D937C93E114F10471F0CA
:104B2000D7011396FC93EE93129776CF22968C0FB3
:104B30009D1FF90191838083F301EFCFF0938406E9
:104B4000E093830669CF4816590608F42C017D01CD
:104B5000D3019ACFCB010E94DA237C01009749F060
:104B6000AE01B8010E94C125C8010E9476248701C8
:104B700053CF10E000E050CF81E090E0F8940C9427
:104B8000DC25FB01DC0102C001900D924150504038
:104B9000D8F70895FC018191861721F08823D9F771
:104BA000992708953197CF010895FB01DC01019009
:104BB0000D920020E1F7089513E0CDE2D3E004C0A8
:104BC000FE010E94D4232196CE32D107C9F7F89472
:024BD000FFCF15
:104BD2000000C8410000C8410000000000000000C1
:104BE20000000000000000000000000000000000C3
:104BF2000000000000000000000000000000C0E013
:104C0200F0F8FCFCFEFFFCE00000000000000000E9
:104C12000000000000000000000000000000000092
:104C22000000000000000000000000000000000082
:104C320000000000000000000000000000F8F8F88A
:104C4200F8F8F8F8F8F8F8F8F8F0F0E0E0C080C00A
:104C5200FCFFFFFFFF7F3F7FFFFFFFFFFF00000022
:104C62000000000000000000000000000000000042
:104C72000000000000000000000000000000000032
:104C82000000000000000000000000000000000022
:104C920000000F1F3F7FFFFFFFFFFFFFFFFFE7C780
:104CA200C7878F9F9FFFFFFFC1C0E0FCFFFFFFFF91
:104CB200FFFCFCFCFCFEFEFEFCFCF8F8F0E0C0C0D1
:104CC20000000000000000000000000000000000E2
:104CD20000000000000000000000000000000000D2
:104CE20000000000000000000080C0E0F1FBFFFFB8
:104CF200FFFFFF7F1F0F0F87E7FFFFFF1F1F3FF918
:104D0200F8F8F8F8F8F8FDFFFFFFFFFFFFFFFFFFDD
:104D12007F3F0F07010000000000000000000000BC
:104D22000000000000000000000000000000000081
:104D32000000000000000000000000F0FEFFFFFF86
:104D4200FFFFFFFFFFFFFFFE7E3F3F0F1FFFFFFF43
:104D5200FCF0E0F1FFFFFFFFFFFCF00101010101A8
:104D6200010101000000000000000000000000003E
:104D72000000000000000000000000000000000031
:104D8200000000000000000000000000000000031E
:104D920003030303030303010101010000000000F8
:104DA2000000030F1F3F7F7FFFFFFFFF7F7F1F0377
:104DB20000000000000000000000000000000000F1
:104DC20000000000000000000000000000000000E1
:104DD200000085068000000000002E068E05BB053F
:104DE2007B06EC05CA05DE05000000004C0A1F0A1E
:104DF2001510B306180A050AF60900000000B406E9
:104E02008E051510B306100726079B06000000004A
:104E1200BB0C8E05151014103008B306600F380F46
:104E2200540F480F670FB306810A1F08FF0EC60E04
:104E3200810E640EEC0D8D0D6E616E00696E660062
:104E42006F7666000D0A0043312000433220004392
:104E5200332000433420004E4F4E45004F5600553C
:104E620056004F43004F54004F4E004F4646004EEF
:104E7200414E4F204C4F47474552205245414459DD
:104E82000057616974696E6720666F7220556E6F94
:104E92002074656C656D657472792E2E2E004E41FC
:104EA2004E4F204C4F470043313D002C43323D00D2
:104EB2002C43333D002C43343D002C5041434B3DA9
:104EC200002C534F433D002C493D002C544D414989
:104ED2004E3D002C544155583D002C4641554C54F2
:104EE2003D002C42414C3D00454550524F4D5F46DE
:104EF20041554C545F434F554E543D002C4C415349
:104F0200545F4641554C543D004641554C543A007D
:104F120042414C3A0046434E543A004C4153543AB3
:084F22000042555A5A3A000002
:00000001FF
