:100000000C940A030C9432030C9432030C943203C4
:100010000C9432030C9432030C9432030C9432038C
:100020000C9432030C9432030C9432030C9432037C
:100030000C9432030C9432030C9432030C9432036C
:100040000C943C100C9432030C94AC100C9486105D
:100050000C9432030C9432030C9432030C9432034C
:100060000C94DE100C94320308000000BE92244968
:10007000123EABAAAA2ABECDCCCC4C3E00000080DA
:10008000BEABAAAAAA3E00000000BF000000803F4D
:100090000000000000084178D3BB4387D1133D190D
:1000A0000E3CC3BD4282AD2B3E68EC8276BED98F3A
:1000B000E1A93E4C80EFFFBE01C4FF7F3F0000007E
:1000C000000000000000003E5B4F5B3E3E6B4F6B4C
:1000D0003E1C3E7C3E1C183C7E3C181C577D571C29
:1000E0001C5E7F5E1C00183C1800FFE7C3E7FF00A2
:1000F00018241800FFE7DBE7FF30483A060E2629F0
:10010000792926407F050507407F05253F5A3CE7B2
:100110003C5A7F3E1C1C08081C1C3E7F14227F2278
:10012000145F5F005F5F06097F017F006689956A43
:10013000606060606094A2FFA29408047E040810CE
:10014000207E201008082A1C08081C2A08081E10F7
:100150001010100C1E0C1E0C30383E3830060E3EAF
:100160000E06000000000000005F0000000700070E
:1001700000147F147F14242A7F2A12231308646238
:1001800036495620500008070300001C2241000099
:1001900041221C002A1C7F1C2A08083E08080080F7
:1001A000703000080808080800006060002010088F
:1001B00004023E5149453E00427F40007249494990
:1001C000462141494D331814127F102745454539C2
:1001D0003C4A4949314121110907364949493646C6
:1001E0004949291E000014000000403400000008A6
:1001F0001422411414141414004122140802015949
:1002000009063E415D594E7C1211127C7F494949D5
:10021000363E414141227F4141413E7F494949416A
:100220007F090909013E414151737F0808087F0099
:10023000417F41002040413F017F081422417F401F
:100240004040407F021C027F7F0408107F3E4141F6
:10025000413E7F090909063E4151215E7F09192966
:1002600046264949493203017F01033F4040403F50
:100270001F2040201F3F4038403F63140814630391
:10028000047804036159494D43007F414141020410
:10029000081020004141417F040201020440404017
:1002A0004040000307080020545478407F2844440D
:1002B000383844444428384444287F385454541827
:1002C00000087E090218A4A49C787F080404780022
:1002D000447D40002040403D007F10284400004104
:1002E0007F40007C047804787C0804047838444417
:1002F0004438FC1824241818242418FC7C0804040E
:1003000008485454542404043F44243C4040207C76
:100310001C2040201C3C4030403C44281028444CC9
:100320009090907C4464544C440008364100000096
:10033000770000004136080002010204023C262337
:10034000263C1EA1A161123A4040207A38545455EF
:1003500059215555794122545478422155547840B9
:1003600020545579400C1E52721239555555593941
:100370005454545939555454580000457C41000296
:10038000457D420001457C407D1211127DF02825FB
:1003900028F07C545545002054547C547C0A097F35
:1003A0004932494949323A4444443A324A48483049
:1003B0003A4141217A3A42402078009DA0A07D3DFB
:1003C0004242423D3D4040403D3C24FF2424487E83
:1003D0004943662B2FFC2F2BFF0929F620C0887E6E
:1003E000090320545479410000447D413048484A73
:1003F00032384040227A007A0A0A727D0D19317D26
:100400002629292F28262929292630484D402038F9
:100410000808080808080808382F10C8ACBA2F10B8
:100420002834FA00007B000008142A142222142A1F
:1004300014085500550055AA55AA55AAFF55FF5551
:10044000FF000000FF00101010FF00141414FF0044
:100450001010FF00FF1010F010F0141414FC001422
:1004600014F700FF0000FF00FF1414F404FC141440
:1004700017101F10101F101F1414141F001010103D
:10048000F0000000001F101010101F10101010F0CE
:1004900010000000FF101010101010101010FF10AE
:1004A000000000FF140000FF00FF00001F101700F5
:1004B00000FC04F414141710171414F404F40000CE
:1004C000FF00F714141414141414F700F714141480
:1004D000171410101F101F141414F4141010F0101F
:1004E000F000001F101F0000001F14000000FC148B
:1004F0000000F010F01010FF10FF141414FF14107F
:1005000010101F00000000F010FFFFFFFFFFF0F0D1
:10051000F0F0F0FFFFFF0000000000FFFF0F0F0FE3
:100520000F0F3844443844FC4A4A4A347E020206DB
:1005300006027E027E0263554941633844443C040E
:10054000407E201E2006027E020299A5E7A5991C86
:100550002A492A1C4C7201724C304A4D4D303048A9
:10056000784830BC625A463D3E494949007E010107
:10057000017E2A2A2A2A2A44445F444440514A449C
:100580004040444A51400000FF0103E080FF00006A
:1005900008086B6B083612362436060F090F060062
:1005A0000018180000001010003040FF0101001F6B
:1005B00001011E00191D1712003C3C3C3C000000CC
:1005C000000000000000240027002A0000000008AE
:1005D000000201000003040700000000000000000A
:1005E00001020408102040800102040810200102CA
:1005F0000408102000000000250028002B0004043F
:1006000004040404040402020202020203030303BA
:100610000303F91111241FBECFEFD8E0DEBFCDBF19
:1006200014E0A0E0B1E0E2E9F3E402C005900D922D
:10063000A23CB107D9F726E0A2ECB4E001C01D92BC
:10064000AA34B207E1F713E0CAE0D3E004C021976F
:10065000FE010E949720C930D107C9F70E94C41239
:100660000C94C7210C940000FC0120812EBD0DB418
:1006700007FEFDCF2EB5FC012083089590E0FC011C
:10068000E453FA4F2491FC01E052FA4F3491FC01FB
:10069000E250FA4FE491EE23C9F0222339F02330DF
:1006A00001F1A8F4213019F1223029F1F0E0EE0F28
:1006B000FF1FEC50FA4FA591B4918FB7F894EC91CD
:1006C000611126C030953E233C938FBF089527309B
:1006D000A9F02830C9F0243049F7809180008F7D3F
:1006E00003C0809180008F7780938000DFCF84B536
:1006F0008F7784BDDBCF84B58F7DFBCF8091B00039
:100700008F778093B000D2CF8091B0008F7DF9CFEA
:100710003E2BDACFCF93DF9390E0FC01E052FA4F0B
:10072000249182509A4FFC0184918823D1F090E06B
:10073000880F991FFC01EE53FA4FA591B491FC016B
:10074000EC50FA4FC591D49161110EC09FB7F89447
:100750008C91E22FE0958E238C932881E223E8830D
:100760009FBFDF91CF9108958FB7F894EC91E22B62
:10077000EC938FBFF6CF8E3008F08E508770806478
:1007800080937C0080917A00806480937A008091CD
:100790007A0086FDFCCF80917800909179000895D1
:1007A0008230910538F0880F991F880F991F05979F
:1007B0000197F1F708959F92AF92BF92CF92DF9287
:1007C000EF92FF920F931F93CF93DF93EC015B01A6
:1007D0008885998511E0892B09F010E8F501E08002
:1007E0008E2D8123992493948111912C2C813D810C
:1007F0004E815F8160E271EA87E090E00E946120B3
:10080000022FF12CC22ED12C002319F0C6010E9418
:10081000D0038A85982F977F09F04FC08D858F3F31
:1008200089F09E2D912381E009F480E0891551F033
:10083000EF85F8898F899923D1F19081892B808365
:1008400099249394E989FA898081998D892B8083F1
:10085000002319F0C6010E94D0038E858F3F39F026
:10086000EB89FC898081988D892309F0F12AE98937
:10087000FA899081898D80958923808388859985DF
:10088000892B09F073C0110F1111BECF8E858F3FD8
:1008900011F0F501F082DF91CF911F910F91FF9040
:1008A000EF90DF90CF90BF90AF909F900895908190
:1008B000809589238083912CC5CF8C30A1F58D85BF
:1008C0008F3F49F0EF85F8898F899E2D912339F16B
:1008D0009081892B8083E989FA899081898D80951F
:1008E00089238083002319F0C6010E94D003E9897F
:1008F000FA898081998D892B8083002319F0C601A4
:100900000E94D0038E858F3F09F4B8CFEB89FC8914
:100910008081988D892309F4B1CFF12AAFCF9081DE
:1009200080958923D7CFE989FA898081998D892B90
:100930008083002319F0C6010E94D0038D858F3F6C
:1009400049F0EF85F8898F899E2D912359F0908188
:10095000892B8083E989FA899081898D8095892303
:100960008083D0CF908180958923F3CF16958CCF4B
:10097000AF92BF92CF92DF92EF92FF920F931F93AD
:10098000CF93DF931F92CDB7DEB78C015B016A0175
:10099000DC018D919C911197892B39F01296ED9184
:1009A000FC91908181819CBD8DBDF80183858F3F35
:1009B00019F060E00E943E037501CA0CDB1CCE14E6
:1009C000DF04A9F0D7018D917D018983F801808131
:1009D0009181892B29F0CE0101960E943403EFCF3B
:1009E000BE016F5F7F4FC8010E94DB03E8CFD801D3
:1009F0001B968C918F3F19F061E00E943E0381E0CD
:100A00000F90DF91CF911F910F91FF90EF90DF90AA
:100A1000CF90BF90AF9008953FB7F89480917E0536
:100A200090917F05A0918005B091810526B5A89B86
:100A300005C02F3F19F00196A11DB11D3FBFBA2F70
:100A4000A92F982F8827BC01CD01620F711D811D30
:100A5000911D42E0660F771F881F991F4A95D1F7B5
:100A600008958F929F92AF92BF92CF92DF92EF92B2
:100A7000FF924B015C010E940C056B017C010E94FE
:100A80000C056C197D098E099F09683E734081052C
:100A90009105A8F321E0821A9108A108B10888EE17
:100AA000C80E83E0D81EE11CF11C81149104A1043E
:100AB000B10429F7FF90EF90DF90CF90BF90AF90F7
:100AC0009F908F9008952FB7F89460917A05709158
:100AD0007B0580917C0590917D052FBF0895DC01F9
:100AE000ED91FC910190F081E02D0994AF92BF92BD
:100AF000CF92DF92EF92FF920F931F93CF93DF93EA
:100B00006C017B018B01040F151FEB015E01AE1818
:100B1000BF08C017D10759F06991D601ED91FC913A
:100B20000190F081E02DC6010995892B79F7C50167
:100B3000DF91CF911F910F91FF90EF90DF90CF90B9
:100B4000BF90AF900895FC01538D448D252F30E068
:100B5000842F90E0821B930B541710F0CF960895CA
:100B600001970895FC01918D828D981761F0A28DF7
:100B7000AE0FBF2FB11D5D968C91928D9F5F9F73BD
:100B8000928F90E008958FEF9FEF0895FC01918D73
:100B9000828D981731F0828DE80FF11D858D90E0E0
:100BA00008958FEF9FEF0895FC01918D228D892F7D
:100BB00090E0805C9F4F821B91098F739927089565
:100BC00082E895E00E94D40521E0892B09F420E019
:100BD000822F089580E090E0892B29F00E94E005A3
:100BE00081110C9400000895FC01A48DA80FB92F69
:100BF000B11DA35ABF4F2C91848D90E001968F7345
:100C00009927848FA689B7892C93A089B1898C9163
:100C1000837080648C93938D848D981306C00288B2
:100C2000F389E02D80818F7D80830895EF92FF927C
:100C30000F931F93CF93DF93EC0181E0888F9B8DFF
:100C40008C8D98131AC0E889F989808185FF15C0B9
:100C50009FB7F894EE89FF896083E889F9898081DC
:100C60008370806480839FBF81E090E0DF91CF91AB
:100C70001F910F91FF90EF900895F62E0B8D10E0CD
:100C80000F5F1F4F0F731127E02E8C8D8E110CC03C
:100C90000FB607FCFACFE889F989808185FFF5CF87
:100CA000CE010E94F405F1CFEB8DEC0FFD2FF11D6D
:100CB000E35AFF4FF0829FB7F8940B8FEA89FB89C4
:100CC00080818062CFCFCF93DF93EC01888D882322
:100CD000B9F0AA89BB89E889F9898C9185FD03C09F
:100CE000808186FD0DC00FB607FCF7CF8C9185FF84
:100CF000F2CF808185FFEDCFCE010E94F405E9CFD0
:100D0000DF91CF9108950F931F93CF93DF931F929D
:100D1000CDB7DEB78C01698360E0FC01868D0E944F
:100D20003E0341E050E0BE016F5F7F4FF801838DCD
:100D3000948D0E94B8040F90DF91CF911F910F9175
:100D40000895CF93C82F87FDCFE7C0933E0661E299
:100D50008FE196E00E9483066C2F60688FE196E039
:100D60000E94830660E28FE196E0CF910C948306A7
:100D7000CF9380913C0687FD13C061E00E948A03F7
:100D800060E080913C060E943E0361E070E080E0FC
:100D900090E00E94310561E080913C060E943E0394
:100DA000C0913F06C83008F0C7E0C0933F0661E23B
:100DB0008FE196E00E9483066C2F60618FE196E0E0
:100DC0000E94830660E28FE196E00E948306809194
:100DD0003E060E94A10660E28FE196E00E94830633
:100DE0006CE08FE196E0CF910C948306FF920F9315
:100DF0001F93CF93DF9390914006992339F0809110
:100E000041068F5F8917E8F580934106D09144062B
:100E1000D695D695D69584E5D89F800111248091EA
:100E200045068695869586958D1780F16D2F6064B1
:100E30008FE196E00E948306C0914206F09043063F
:100E40006C2F60688FE196E00E94830661E08091DC
:100E50003D060E943E034F2D50E06C2F70E0461B74
:100E6000570B4F5F5F4F600F711F6C5F7E4F80911C
:100E70003A0690913B060E94B804DF5F0C5A1F4F60
:100E8000CECF109241060E94B806C0CF60E48FE139
:100E900096E00E94830683E5809342061092430603
:100EA0008FE28093440610924506DF91CF911F9107
:100EB0000F91FF9008951F93CF93DF93EC01162FAE
:100EC00060E20E9483066CE011116DE0CE01DF91BB
:100ED000CF911F910C948306FC0177FD55C080854E
:100EE0009185681779070CF04FC057FD4DC082857A
:100EF0009385481759070CF047C08689823009F45A
:100F000044C0833009F44EC0813031F48FE290E068
:100F1000861B970BBA01AC01842FA62F93A16917EA
:100F200008F4962F93A394A19A1708F49A2F94A3E8
:100F300095A1891708F4982F95A396A1981708F4FE
:100F4000982F96A3CA0157FD0796E3E095958795DC
:100F5000EA95E1F7A4E5A89FF001A99FF00D1124FF
:100F6000E60FF71FEC5FFE4FCA0168E070E00E94D9
:100F70004D2041E050E001C0440F8A95EAF780819E
:100F8000232BB9F0842B8083089583E590E0DC0166
:100F9000A61BB70BBD018FE290E0DC01A41BB50BD3
:100FA000AD01BACF83E590E0841B950BAB01BC018A
:100FB000B3CF40958423E7CF2091E904260F332750
:100FC000331F21323105ECF420910D05FC0190E036
:100FD00080E0243069F082E00895A091E904219135
:100FE000AC0147535B4FA40FB52FB11D2C93019655
:100FF000861798F38091E904680F6093E90480E014
:10100000089581E0089508958FEF9FEF08958FEF81
:101010009FEF08958091C20490E091958195910988
:101020000895CF93DF93CB01EA01642F0E94DC0780
:10103000CE01DF91CF910895CF93DF931F92CDB76B
:10104000DEB7698361E0CE0101960E94DC0781E092
:1010500090E00F90DF91CF9108950895FC016370A7
:10106000668B8481958126813781613039F06330C8
:1010700029F09187808733872287089531872087D9
:101080009387828708952F923F924F925F926F923B
:101090007F928F929F92AF92BF92CF92DF92EF9208
:1010A000FF920F931F93CF93DF93CDB7DEB76A976D
:1010B0000FB6F894DEBF0FBECDBF9A8F898F7A83AB
:1010C00069834A01D22E18870F833701BC2CDC01BB
:1010D00059962D913C915A972115310509F015C16A
:1010E00018968D919C911997681779070CF0D7C1C4
:1010F0001A968D919C91481759070CF0D0C14C2C31
:10110000512CB6E0CB9E600D711D11247C876B873E
:10111000161617060CF0C3C1EA2DF0E0FA87E9872E
:1011200093E0EE0FFF1F9A95E1F7F88BEF87CF0161
:10113000840F951F181619060CF0B1C1A98DBA8D30
:1011400058968C91811104C0BFEABD1508F4D39460
:10115000A98DBA8DED91FC9111970284F385E02D54
:10116000CD010995B5E0DB9EC0011124E981FA812A
:10117000FC83EB83312C212C9C012E533F4F388F65
:101180002F8B4A2D50E05E8B4D8BEF89F88DE20D51
:10119000F31D44919E828D82D12CC12C69817A816C
:1011A000620D731D7A8B698B842F90E09C8B8B8BE7
:1011B000E98DFA8DA081B18140FF82C0F1E0BF12BC
:1011C0006FC0AF126DC01C96ED91FC912F813885D8
:1011D000A4014C0D5D1D69897A89898D9A8D0995C7
:1011E000EB89FC89F595E7954E2F5FEFC51AD50A77
:1011F0006D817E818D899E89680F791F7E836D83C5
:1012000098E0C916D10481F6AFEF2A1A3A0AEB81A9
:10121000FC81E40DF51DFC83EB83F5E02F16310412
:1012200009F0B3CF2F81388526153705B9F0A98D80
:10123000BA8DED91FC91B1E0BB1257C0AB1255C015
:1012400069817A816B5F7F4F0088F189E02D83018E
:1012500028E030E0A401898D9A8D0995A98DBA8D79
:10126000ED91FC9111970688F789E02DCD016A96E2
:101270000FB6F894DEBF0FBECDBFDF91CF911F91A7
:101280000F91FF90EF90DF90CF90BF90AF909F9025
:101290008F907F906F905F904F903F902F90099428
:1012A0001E96ED91FC91EF80F88409851A859201D4
:1012B0004D815E816B817C81898D9A8D099590CF5E
:1012C0002F8138852615370509F48ACF31E0B3120E
:1012D00007C0A31205C01C96ED91FC91930178CF35
:1012E0001E96ED91FC917301E0CF6B857C856419AE
:1012F00075090684F785E02D73010F851889920121
:10130000A401898D9A8D0995A9CFF90134969491FC
:10131000329745915491D91AB7E0DB9E400D511D8B
:101320001124F901259134913C8B2B8BFA012590E6
:101330003490FA013296749031963491398B32960A
:1013400064903196449041E04C1518F04A1508F02D
:101350007FC0662D062C000C770B7C836B83842D5D
:10136000042C000C990B9E838D83A98DBA8DED9171
:10137000FC9111970284F385E02DCD010995512C44
:10138000D12CC12CEA2DF0E0FA87E9872B2D30E033
:101390003C872B87A401440D511D47FC5A95588F5B
:1013A0004F8B69817A81660D711D67FC7A957E8706
:1013B0006D877989C71608F051CF2C2D30E04D810B
:1013C0005E81420F531FA985BA854A9FC0014B9F7A
:1013D000900D5A9F900D1124FC01E80DF91DF88B1A
:1013E000EF87852D612C4F89588D420F531F5E8BDF
:1013F0004D8B671408F050C044244394480E877006
:1014000041F4C1010196EB89FC89E20DF31DD490F2
:101410001C01D7FE19C0A98DBA8DED91FC91662DE6
:1014200070E0B1E0BB1219C0AB1217C02D853E852C
:10143000620F731F0484F585E02D2F8138854D8957
:101440005E89898D9A8D0995DD0C6394842DD1CFA9
:101450001E821D821C821B8288CF4B815C81640F9F
:10146000751FAB85BC856A9FC0016B9F900D7A9FED
:10147000900D112469817A81680F791F0684F785A0
:10148000E02DEF80F88409851A859D014F855889E4
:10149000898D9A8D0995D8CF570CC3948ACF6A96B7
:1014A0000FB6F894DEBF0FBECDBFDF91CF911F9175
:1014B0000F91FF90EF90DF90CF90BF90AF909F90F3
:1014C0008F907F906F905F904F903F902F900895F6
:1014D0008F929F92AF92CF92EF92FF920F931F93B2
:1014E000CF93DF93EC01262F898D9A8D009709F019
:1014F00051C06A30D1F41D861C868D8948E0849FD6
:10150000900111248E859F85820F931F9F878E8760
:1015100081E090E0DF91CF911F910F91FF90EF90CC
:10152000CF90AF909F908F9008956D3089F3CC88C5
:10153000AD888F898823C1F08C859D8536E0C39E58
:10154000800D911D1124488559854817590764F469
:101550004E855F851D861C8638E0A39EC001112440
:10156000840F951F9F878E87EA88FB8808891989D1
:101570004E855F856C857D85CE010E9443082C8950
:101580008C859D8546E0249F800D911D11249D87AB
:101590008C87BECF6A3069F41D861C86FC013896A4
:1015A000E4912D898E859F85E29F800D911D1124E8
:1015B000ADCF6D3009F4ACCFFC0134963491631794
:1015C00008F4A6CF3296E491E61708F4A1CFFC0107
:1015D000329685909490462F431B342F47E0349FDA
:1015E000800C911C1124F401329634913196E491CF
:1015F0003323A9F1EE2399F1CC88F4013596E491D7
:10160000AD884F89442301F10E2E000CFF0BE30F30
:10161000F11DCE9EA001CF9E500D11246C857D85BD
:10162000460F571F68857985641775076CF44E85DA
:101630005F851D861C86FC013896E491AE9E400DA8
:10164000511D11245F874E87EA88FB880889198914
:101650004E855F856C857D85CE010E944308F4012F
:101660003496E4912C898C859D85E29F800D911D97
:1016700011248DCF6F927F928F929F92AF92BF92E3
:10168000CF92DF92EF92FF920F931F93CF93DF934E
:10169000EC016B015A0139014801E881F9810284AA
:1016A000F385E02D0995E881F9810288F389E02D21
:1016B00087019301A501B601CE010995A501480D49
:1016C000591D41505109E881F9810288F389E02DC3
:1016D0009301B601CE010995E881F9810088F1896D
:1016E000E02D9401A501B601CE010995C60CD71CC9
:1016F000B60161507109E881F9810088F189E02D16
:101700009401A501CE010995E881F9810688F78940
:10171000E02DCE01DF91CF911F910F91FF90EF90BF
:10172000DF90CF90BF90AF909F908F907F906F9001
:1017300009946F927F928F929F92AF92BF92CF92B5
:10174000DF92EF92FF920F931F93CF93DF935C0191
:10175000EB016A01490138018701DC01ED91FC913F
:101760006217730719F5641675062CF0962D872DF0
:101770003A01C92ED82E9601261937092F5F3F4FFF
:10178000048CF58DE02DA301BE01C5010995DF9103
:10179000CF911F910F91FF90EF90DF90CF90BF906E
:1017A000AF909F908F907F906F900895461557054A
:1017B00091F42617370724F0892D4B01C22FD82F1B
:1017C0009E01281939092F5F3F4F068CF78DE02DB8
:1017D000A601B401DACF0284F385E02D0995D50185
:1017E000ED91FC910488F589E02D83019401A60117
:1017F000BE01C5010995D501ED91FC910688F789D7
:10180000E02DC501DF91CF911F910F91FF90EF90D7
:10181000DF90CF90BF90AF909F908F907F906F9010
:101820000994EF92FF920F931F93DC011A960D918A
:101830001C911B9718962D913C911997ED91FC9155
:1018400000A0F1A1E02D7B0150E040E070E060E0FD
:1018500009951F910F91FF90EF9008954F925F921D
:101860006F927F928F929F92AF92BF92CF92DF92B0
:10187000EF92FF920F931F93CF93DF936C012B0195
:101880005A0139014801DC01ED91FC910284F38594
:10189000E02D0995E201640C751CD601ED91FC91D7
:1018A000C615D7055CF40088F189E02D8701940105
:1018B000A501BE01C60109952196EFCF0688F789DB
:1018C000E02DC601DF91CF911F910F91FF90EF9016
:1018D000DF90CF90BF90AF909F908F907F906F9050
:1018E0005F904F9009948F929F92AF92BF92CF9248
:1018F000DF92EF92FF920F931F93CF93DF93EC0150
:101900005B014A016901E881F9810284F385E02DD8
:10191000099595012C0D3D1D21503109E881F98172
:101920000488F589E02D78018401A401B501CE0178
:101930000995E881F9810688F789E02DCE01DF91CC
:10194000CF911F910F91FF90EF90DF90CF90BF90BC
:10195000AF909F908F9009948F929F92AF92BF9279
:10196000CF92DF92EF92FF920F931F93CF93DF936B
:10197000EC015B014A0169017801E881F981028487
:10198000F385E02D0995C80CD91C86010150110979
:10199000E881F9810488F589E02D9501A401B5015C
:1019A000CE010995E881F9810688F789E02DCE01FD
:1019B000DF91CF911F910F91FF90EF90DF90CF902B
:1019C000BF90AF909F908F900994EF92FF920F93EA
:1019D0001F93DC01ED91FC9100A0F1A1E02D099590
:1019E0001F910F91FF90EF9008950F931F93DC01CB
:1019F000ED91FC91068CF78DE02D09951F910F91CB
:101A000008950F931F93DC01ED91FC91048CF58DEB
:101A1000E02D09951F910F910895DC01ED91FC9146
:101A20000084F185E02D09942F923F924F925F92AE
:101A30006F927F928F929F92AF92BF92CF92DF92DE
:101A4000EF92FF920F931F93CF93DF9300D000D0BC
:101A500000D0CDB7DEB73C016A013E832D83FC8206
:101A6000EB825801A41AB50AB7FE03C0B194A19441
:101A7000B1088D809E80861A970A97FE03C09194C4
:101A8000819491088A149B045CF0902F812F0D8122
:101A90001E819D838E839C2D8D2D6B01692F782F48
:101AA0000C151D055CF09D818E817E836D83692FF1
:101AB000782F902F812F8601C92ED82E1601201A3B
:101AC000310A2B012D813E81421A530A57FE03C071
:101AD000519441945108710137FE03C03FEFE31A5E
:101AE000F30AF594E7948D819E81861797075CF53C
:101AF000A1E0B0E0BA83A983C016D1064CF1D301AE
:101B0000ED91FC910484F585E02D2B813C81A801A9
:101B10006D817E818A149B041CF04D815E81B80129
:101B2000C3010995E418F508F7FE0AC02D813E812E
:101B300089819A81280F391F3E832D83E20CF31C83
:101B40000F5F1F4FD9CF2FEF3FEF3A832983D4CFB9
:101B500026960FB6F894DEBF0FBECDBFDF91CF91B2
:101B60001F910F91FF90EF90DF90CF90BF90AF90BB
:101B70009F908F907F906F905F904F903F902F90AD
:101B80000895089590E080E00895BF92CF92DF928B
:101B9000EF92FF920F931F93CF93DF93B82EC4E180
:101BA000D0E0C12CD12C76010BE113E08B2D0E94EB
:101BB000BB03092E000CAA0BBB0BC80ED91EEA1ED4
:101BC000FB1EC8010197F1F7219781F7C701B60104
:101BD0000E94A11E20E030E040EA51E40E94F71D7F
:101BE00020E030E040EA50E40E94A61F20E030EC04
:101BF0004FE754E40E94F71DDF91CF911F910F91A1
:101C0000FF90EF90DF90CF90BF900895E4E0F1E077
:101C100088EF91E0DF019C011D9221503040E1F7F7
:101C20001092420680914306833508F483E5809341
:101C3000430610924406809145068F3208F48FE2E5
:101C40008093450610922C0610922B0610922E06B9
:101C500010922D0608950E94C221FB0101900020E0
:101C6000E9F73197AF01461B570BDC01ED91FC9171
:101C70000280F381E02D09948F929F92AF92BF92E0
:101C8000EF92FF920F931F93CF93DF93CDB7DEB701
:101C9000A1970FB6F894DEBF0FBECDBF7C01FA014D
:101CA000CB0119A2223008F42AE08E010F5D1F4FEC
:101CB000822E912CB12CA12CBF01A50194010E9470
:101CC0006120F901CA016A300CF5605DD8016E939C
:101CD0008D01232B242B252B79F790E080E01097A2
:101CE00021F0BD01C7010E942D0EA1960FB6F894F8
:101CF000DEBF0FBECDBFDF91CF911F910F91FF903F
:101D0000EF90BF90AF909F908F900895695CDECF69
:101D1000CF92DF92EF92FF920F931F93CF93DF93B7
:101D20006B01770FEE08FF08F7FE1BC0EC016DE2B8
:101D30000E946F058C0144275527BA014C195D0993
:101D40006E097F092AE0CE010E943C0E800F911F90
:101D5000DF91CF911F910F91FF90EF90DF90CF9087
:101D600008952AE0B701A601DF91CF911F910F914D
:101D7000FF90EF90DF90CF900C943C0E60E473E006
:101D80000C942D0ECF93DF93482F50E070E060E06D
:101D90002AE082E895E00E943C0EEC0182E895E0A2
:101DA0000E94BE0E8C0F9D1FDF91CF9108950F935F
:101DB0001F93CF93DF93EC010E942D0E8C01CE0177
:101DC0000E94BE0E800F911FDF91CF911F910F9146
:101DD00008954F925F926F927F928F929F92AF92EF
:101DE000BF92CF92DF92EF92FF921F93CF93DF9338
:101DF000EC016A017B01822EAB019601CB01B60199
:101E00000E94132063E473E0811126C0260137018C
:101E1000E89477F82FEF3FEF4FE75FE7C301B20198
:101E20000E94132081110CC02FEF3FEF4FE75FE7B7
:101E3000C301B2010E94F21D67E473E0181664F05A
:101E40002FEF3FEF4FE75FE4C701B6010E94511F3C
:101E50001816A4F46BE473E0CE01DF91CF911F91CB
:101E6000FF90EF90DF90CF90BF90AF909F908F90BA
:101E70007F906F905F904F900C942D0E2FEF3FEF5F
:101E80004FE75FECC701B6010E94F21D87FDE2CF6C
:101E900020E030E0A901C701B6010E94F21DB12C7B
:101EA000A12C87FF09C06DE2CE010E946F055C0185
:101EB000F7FAF094F7F8F094182D60E070E080E005
:101EC0009FE3912C20E030E040E251E40E94F71DB6
:101ED00093949814B8F3A70196010E94861D2B01D4
:101EE0003C010E94701E6B017C010E949F1E9B01A1
:101EF000AC01C301B2010E94851D2B013C012AE007
:101F0000B701A601CE010E943C0E7C016EE2CE011B
:101F10000E946F05E80EF91EEA0CFB1C115020F11F
:101F200020E030E040E251E4C301B2010E94A61F6C
:101F30002B013C010E94701E4B01B12CA12C2AE008
:101F4000B501A401CE010E943C0EE80EF91EC501A8
:101F5000B4010E949F1E9B01AC01C301B2010E940B
:101F6000851D2B013C01DACFC701DF91CF911F9175
:101F7000FF90EF90DF90CF90BF90AF909F908F90A9
:101F80007F906F905F904F9008950C942D0E1F934B
:101F9000CF93DF9385ED8093BC008091C504909131
:101FA000C604A091C704B091C8040796A11DB11D35
:101FB00023E0B695A795979587952A95D1F7209117
:101FC000BC0024FD03C010920D0552C04091C50411
:101FD0005091C6046091C7047091C804452B462BEC
:101FE000472B69F30097A105B10541F02AE22A9534
:101FF000F1F700C00197A109B109E1CF8091C404B4
:10200000C1E0C093C304882399F1D091B800109126
:10201000BA008091BC008A7B8093BC0060E082E1C2
:102020000E943E0360E083E10E943E0310920D0592
:10203000C0930F0510920E0561E082E10E943E03FD
:1020400061E083E10E943E038091B9008E7F80931E
:10205000B9008091B9008D7F8093B90088E48093A6
:10206000B80085E48093BC001093BA00D093B80008
:10207000DF91CF911F9108951F920F920FB60F928B
:1020800011242F933F938F939F93AF93BF9380918E
:102090007A0590917B05A0917C05B0917D053091EA
:1020A000790523E0230F2D3758F50196A11DB11DA9
:1020B0002093790580937A0590937B05A0937C0506
:1020C000B0937D0580917E0590917F05A09180055C
:1020D000B09181050196A11DB11D80937E0590935D
:1020E0007F05A0938005B0938105BF91AF919F912B
:1020F0008F913F912F910F900FBE0F901F901895C9
:1021000026E8230F0296A11DB11DD2CF1F920F9278
:102110000FB60F9211242F933F934F935F936F93BA
:102120007F938F939F93AF93BF93EF93FF9382E837
:1021300095E00E94F405FF91EF91BF91AF919F91BF
:102140008F917F916F915F914F913F912F910F9060
:102150000FBE0F901F9018951F920F920FB60F92FF
:1021600011242F938F939F93EF93FF93E091920508
:10217000F09193058081E0919805F091990582FD99
:102180001BC0908180919B058F5F8F7320919C0570
:10219000821741F0E0919B05F0E0EE57FA4F958FE2
:1021A00080939B05FF91EF919F918F912F910F90BD
:1021B0000FBE0F901F9018958081F4CF1F920F9241
:1021C0000FB60F9211242F933F934F935F936F930A
:1021D0007F938F939F93AF93BF93EF93FF938091E0
:1021E000B900887F803609F44AC0F0F5883209F4D6
:1021F000A5C018F5803109F499C0B8F4882309F412
:10220000F5C0883009F492C0FF91EF91BF91AF9172
:102210009F918F917F916F915F914F913F912F91FE
:102220000F900FBE0F901F901895883109F486C04B
:10223000803251F780930C0514C0803409F49BC0A0
:1022400040F48033B9F38833F9F680930C0585ECBC
:10225000AEC0803509F483C0883509F494C0883451
:1022600099F60E94C70FD0CF883909F48AC038F593
:10227000883729F050F4883611F0803729F683E04A
:1022800080930D0510920B0555C0883809F479C06C
:10229000803919F0803809F0B7CF80910B05803272
:1022A00008F06FC0E0910B0581E08E0F80930B0565
:1022B0008091BB00F0E0E551FB4F80833BC0803B49
:1022C00039F0D0F4803A09F477C0883A09F09CCF0D
:1022D00084E080930D051092EA041092E904F0E086
:1022E000E0E009958091E90481110FC081E08093BD
:1022F000E9041092C90409C0803C09F4A8CF883CC5
:1023000009F4A5CF883B09F07FCFE091EA0481E092
:102310008E0F8093EA04F0E0E753FB4F80818093B7
:10232000BB009091EA048091E90429C080913205B4
:102330008093BB0085EC8093BC0066CF9091310503
:1023400080913005981758F5E091310581E08E0FA6
:1023500080933105F0E0E05FFA4F8081E9CFE091B2
:10236000310581E08E0F809331058091BB00F0E054
:10237000E05FFA4F80839091310580913005981786
:10238000C8F285E8D8CFE091310581E08E0F8093C7
:1023900031058091BB00F0E0E05FFA4F80838091CF
:1023A0000F0581115ECF81E080930E0584EA809352
:1023B000BC0010920D0528CF85EC8093BC001092D4
:1023C0000D0580910B05803230F4E0910B05F0E0B3
:1023D000E551FB4F108260910B0570E08BEE94E0AD
:1023E000F0E0E0E0099510920B050ECF10920C057D
:1023F00038CFCF93DF93E2E8F5E01382128288EEC4
:1024000093E0A0E0B0E084839583A683B78386E061
:1024100093E09183808385EC90E09587848784ECBA
:1024200090E09787868780EC90E0918B808B81ECA1
:1024300090E0938B828B82EC90E0958B848B86EC82
:1024400090E0978B868B118E128E138E148ECFE1B7
:10245000D6E01B821A8224E530E03D832C8380E3A2
:1024600090E09F838E83398728879B878A871E8A7F
:102470001D861C861F861E8681E08D8B8C8B2FEF20
:102480003FEF3B8B2A8B398B288B8F8B188E1A8EC4
:10249000198E88E193E0998388838CE190E00E9413
:1024A0009D20DC0111961C921E9213961C921E9286
:1024B000129786E01B968C931B978DE01C968C934D
:1024C0001C978FEF1E968C931E978BE01D968C9316
:1024D0001D97E4E0F6E0E491F0E0EE0FFF1FEC5012
:1024E000FA4F8591949156969C938E935597E6EE6C
:1024F000F5E0E4915A96EC935A97E9E0F6E0E4911E
:10250000F0E0EE0FFF1FEC50FA4F8591949150963A
:102510009C938E931F97EBEEF5E0E4915796EC9326
:102520005797EBE0F6E0E491F0E0EE0FFF1FEC5080
:10253000FA4F8591949152969C938E935197EDEE1C
:10254000F5E0E4915996EC93599740E059E06DE33A
:1025500070E014964D935D936D937C93179781E093
:1025600090E019969C938E9318971A961C921A973E
:102570005B961C925B97BC8FAB8F87E08E8F85E05C
:102580008D8FDF91CF910895CF93DF93CDB7DEB7D5
:1025900066970FB6F894DEBF0FBECDBF789484B5B2
:1025A000826084BD84B5816084BD85B5826085BD4F
:1025B00085B5816085BD80916E00816080936E00DD
:1025C00010928100809181008260809381008091CF
:1025D0008100816080938100809180008160809380
:1025E00080008091B10084608093B1008091B00040
:1025F00081608093B00080917A00846080937A003B
:1026000080917A00826080937A0080917A00816064
:1026100080937A0080917A00806880937A0010928B
:10262000C100E0919205F091930582E08083E091F2
:102630008E05F0918F051082E0919005F091910543
:102640008FEC808310929A05E0919605F0919705A2
:1026500086E08083E0919405F0919505808180610A
:102660008083E0919405F091950580818860808356
:10267000E0919405F0919505808180688083E091D8
:102680009405F091950580818F7D808361E082E0E3
:102690000E948A0361E083E00E948A0361E084E093
:1026A0000E948A0361E088E00E948A0361E089E079
:1026B0000E948A0361E08AE00E948A0361E08CE064
:1026C0000E948A0361E082E00E943E0361E083E0B1
:1026D0000E943E0360E084E00E943E0360E088E0E8
:1026E0000E943E0360E089E00E943E0360E08AE0D1
:1026F0000E943E0360E08CE00E943E0380913A0617
:1027000090913B069A838983DC011B968C918F3FC5
:1027100049F061E00E948A0361E0E981FA818385E2
:102720000E943E03A981BA818D919C91892B09F465
:10273000F4C31FB7F89480913305811127C0E8E0F6
:10274000F6E08491EAEEF5E09491E82FF0E0EE0FE8
:10275000FF1FEE53FA4FA591B491EC91E92321F4B8
:1027600061E08AE00E943E0361E08AE00E948A0301
:102770008CB580618CBD8CB580648CBD61E08DE0D2
:102780000E948A0361E08BE00E948A0380913305F6
:102790008F5F809333051FBF81E0E981FA81838FCA
:1027A00061E080913D060E948A0380913C0687FD8E
:1027B00003C061E00E948A0384E080933F0688E2C0
:1027C00080933E0610924006109241060E94B80681
:1027D0001092420680914306833508F483E5809386
:1027E000430610924406809145068F3208F48FE22A
:1027F000809345060E94F60682E30E94A1060E948D
:10280000060E10922C0610922B0610922E06109295
:102810002D0663E573E08FE196E00E94D70E6AE52E
:1028200073E08FE196E00E94D70E62E673E08FE1DD
:1028300096E00E94D70E0E94F6066CED75E080E0EF
:1028400090E00E9431050E94060E0E94F6060E944A
:1028500063056093690570936A0580936B05909397
:102860006C050E94630560937105709372058093F7
:102870007305909374050E94630560936D057093D2
:102880006E0580936F05909370058EE090E00E9436
:10289000C50D6B017C01C0924505D0924605E092C2
:1028A0004705F09248058FE090E00E94C50D2B018E
:1028B0003C0140924105509242056092430570925E
:1028C000440580E190E00E94C50D4B015C018092BF
:1028D0003D0590923E05A0923F05B092400581E1F2
:1028E00090E00E94C50D6D837E838F8398876093EF
:1028F000390570933A0580933B0590933C05A701F9
:102900009601C701B6010E94861D7B016C0120E083
:1029100030E040E450E4C301B2010E94A61F698781
:102920007A878B879C8720E030E040E850E4C5013F
:10293000B4010E94A61F6D877E878F87988B20E049
:1029400030E040EA50E46D817E818F8198850E945D
:10295000A61F6D83372E282E092F20E030E0A90115
:10296000B701C6010E94F21DF0915D05F983209127
:102970005E05298B90915F059A8B1091600587FD0C
:102980000AC020E030E048E251E4B701C6010E94ED
:10299000511F181624F4E980F988CA88D12E20E046
:1029A00030E0A90169857A858B859C850E94F21D9E
:1029B000A0915905AE8BB0915A05BD8B40905B0537
:1029C00050905C0587FD0CC020E030E048E251E407
:1029D00069857A858B859C850E94511F181634F471
:1029E000EE89E987FD89FA874B865C8620E030E036
:1029F000A9016D857E858F8598890E94F21D609062
:102A0000550570905605809057059090580587FDA4
:102A10000CC020E030E048E251E46D857E858F8572
:102A200098890E94511F181624F46D867E868F8621
:102A3000988A20E030E0A9016D81732D822D902FBE
:102A40000E94F21DA0905105B090520520915305AF
:102A50002B8B909154059C8B87FD0CC020E030E0BF
:102A600048E251E46D81732D822D902F0E94511FF9
:102A7000181624F4AD823B2C2B880C892DEC3CECF1
:102A80004CEC5DE3698179898A89912F0E94F21D5E
:102A9000181604F526E636E646E25FE36981798991
:102AA0008A89912F0E94A61F69837A838B839C83D6
:102AB00023E333E343EB5EE3B701C6010E94A61FA5
:102AC0009B01AC0169817A818B819C810E94861D6A
:102AD0007B016C01C701D60180935D0590935E0573
:102AE000A0935F05B09360052DEC3CEC4CEC5DE3EE
:102AF0006E897D89C2010E94F21D18161CF526E61A
:102B000036E646E25FE36E897D89C2010E94A61F18
:102B100069837A838B839C8323E333E343EB5EE314
:102B200069857A858B859C850E94A61F9B01AC01D7
:102B300069817A818B819C810E94861D69877A8751
:102B40008B879C8789859A85AB85BC858093590541
:102B500090935A05A0935B05B0935C052DEC3CEC7B
:102B60004CEC5DE3B301C4010E94F21D1816F4F4AD
:102B700026E636E646E25FE3B301C4010E94A61FE3
:102B80002B013C0123E333E343EB5EE36D857E855C
:102B90008F8598890E94A61F9B01AC01C301B201D9
:102BA0000E94861D6D877E878F87988B8D859E8579
:102BB000AF85B8898093550590935605A093570526
:102BC000B09358052DEC3CEC4CEC5DE3B5018B89E2
:102BD0009C890E94F21D1816FCF426E636E646E2B1
:102BE0005FE3B5018B899C890E94A61F4B015C01A4
:102BF00023E333E343EB5EE36D81732D822D902F4E
:102C00000E94A61F9B01AC01C501B4010E94861D54
:102C10006D83372E282E092F8D81932DA22DB02F55
:102C20008093510590935205A0935305B09354059A
:102C300029853A854B855C85B701C6010E94861DB2
:102C40002D853E854F8558890E94861D2D81332D07
:102C5000422D502F0E94861D69837A838B839C832B
:102C600060934D0570934E0580934F0590935005EA
:102C700082E190E00E94C50D20E030E040E250E4A7
:102C80000E94851D2DEC3CEC4CEC5DE30E94F71D91
:102C90002B013C0120E030E0A9010E94F21D87FFDA
:102CA00004C077FA709477F870942DEC3CEC4CECFF
:102CB0005DE3C301B2010E94F21D87FF03C0412CF6
:102CC000512C32014092750550927605609277053D
:102CD0007092780583E10E94BB03BC0103978A3F91
:102CE000934008F05BC0072E000C880B990B0E94E4
:102CF000A11E9B01AC0160E070EC8FE794E40E94A0
:102D0000F71D20E030E040E85FE30E94851D20E0F1
:102D100030E44CE156E40E94A61F4B015C0120E028
:102D200030E0A9010E94F21D1816C4F520E030E43D
:102D30004CE156E4C501B4010E94F71D0E945E1FDC
:102D400020E030EE46E755E40E94F71D2FE03FEC0F
:102D50004BE55BE30E94861D9B01AC0160E070E0E7
:102D600080E89FE30E94F71D23E333E948E853E43A
:102D70000E94851D4B015C0120E030E040E252ECF6
:102D80000E94F21D87FD0AC020E030E046E153E4D6
:102D9000C501B4010E94511F181634F4812C912CE6
:102DA00088ECA82E81E4B82E809200019092010157
:102DB000A0920201B092030120E030E040E451E42F
:102DC00069817A818B819C810E94851D2AE939E97C
:102DD00049E950E40E94F71D20E030E048EC52E45D
:102DE0000E94A61F69837A838B839C8320E030E056
:102DF000A9010E94F21D87FDC1C089819A81AB8122
:102E0000BC818093490590934A05A0934B05B093EC
:102E10004C0520E030E048EC52E4609149057091A7
:102E20004A0580914B0590914C050E94511F181640
:102E300064F480E090E0A8ECB2E4809349059093BC
:102E40004A05A0934B05B0934C052AE939E949E8B6
:102E500050E4B701C6010E94511F18160CF497C028
:102E60002AE939E949E850E469857A858B859C85AA
:102E70000E94511F18160CF48DC02AE939E949E85F
:102E800050E46D857E858F8598890E94511F1816A4
:102E90000CF483C091E09C8B2AE939E949E850E4BD
:102EA0006D81732D822D902F0E94511F18160CF0EA
:102EB0001C8AFC89F093380520E030E040E050E4C3
:102EC000B701C6010E94F21D87FD6AC020E030E014
:102ED00040E050E469857A858B859C850E94F21DCF
:102EE00087FD00C520E030E040E050E46D857E8540
:102EF0008F8598890E94F21D87FDF6C420E030E09E
:102F000040E050E46D81732D822D902F0E94F21DC0
:102F1000881F8827881F8D8B45C061E0E981FA8171
:102F200084850E948A03A981BA811A968C911A9786
:102F30008B7FF9F460E01C968C910E943E03A9817E
:102F4000BA811D968C918F3F49F061E00E948A03FF
:102F500061E0E981FA8185850E943E03A981BA81F9
:102F60001E968C918F3F09F417CC60E00E948A0373
:102F700013CC61E0E981FA818485DFCF10924905A5
:102F800010924A0510924B0510924C0542CFA1E0D9
:102F9000AC8B8FCFB1E0BC8B8CCFE1E0EC8B89CFD9
:102FA00021E02D8BAD89A093370511E020E030E0C2
:102FB00040E050E4C301B2010E94511F18160CF00A
:102FC00010E01093360511E020E030E040E752E4D5
:102FD000C501B4010E94511F18160CF010E01093A7
:102FE0003505BC89B11183C4ED89E11182C420E0AB
:102FF00030E040E050E4C301B2010E94511F1816B6
:103000000CF479C410936605FC89FF2309F475C498
:1030100021E020936505E1E0E98320E030E048E825
:1030200050E4B701C6010E94511F87FD1982F98142
:10303000F093640521E0298B20E030E048E850E47B
:1030400069857A858B859C850E94511F87FD198A29
:1030500089898093630591E09A8B20E030E048E80D
:1030600050E46D857E858F8598890E94511F87FD6C
:103070001A8AAA89A0936205B1E0BB8B20E030E0F8
:1030800048E850E46D81732D822D902F0E94511FCE
:1030900087FD1B8AEB89E0936105698188E00E94C6
:1030A0003E03698989E00E943E036A898AE00E94A2
:1030B0003E036B898CE00E943E0320E030E048E84C
:1030C00050E4B701C6010E94511F87FF3CC4109213
:1030D000340520E030E048E850E469857A858B8546
:1030E0009C850E94511F87FD05C080913405826038
:1030F0008093340520E030E048E850E46D857E851B
:103100008F8598890E94511F87FD05C080913405E5
:1031100084608093340520E030E048E850E46D811D
:10312000732D822D902F0E94511F87FD05C0809125
:1031300034058860809334052C8921110BC020E070
:1031400030E040E752E4C501B4010E94511F61E044
:1031500018160CF460E082E00E943E038D89811114
:1031600015C020E030E040E050E4C301B2010E940D
:10317000511F18165CF020E030E040E752E4C50132
:10318000B4010E94511F61E018160CF460E083E066
:103190000E943E0361E0111101C060E084E00E94E2
:1031A0003E030E9463050091710510917205209104
:1031B000730530917405601B710B820B930B683E95
:1031C00073408105910508F4B8C022E030E0A70102
:1031D000B60182E895E00E94E90E6DE673E082E8B0
:1031E00095E00E94C50F4091590550915A05609194
:1031F0005B0570915C0522E030E082E895E00E947A
:10320000E90E6DE673E082E895E00E94C50F4091FB
:10321000550550915605609157057091580522E06B
:1032200030E082E895E00E94E90E6DE673E082E806
:1032300095E00E94C50F4091510550915205609153
:1032400053057091540522E030E082E895E00E9439
:10325000E90E6DE673E082E895E00E94C50F4091AB
:103260004D0550914E0560914F057091500522E03B
:1032700030E082E895E00E94E90E6DE673E082E8B6
:1032800095E00E94C50F6091490570914A058091B3
:103290004B0590914C050E94691E82E895E00E94C2
:1032A000880E6DE673E082E895E00E94C50F4091BC
:1032B000750550917605609177057091780522E04B
:1032C00030E082E895E00E94E90E6DE673E082E866
:1032D00095E00E94C50F409100015091010160915D
:1032E00002017091030121E030E082E895E00E9444
:1032F000E90E6DE673E082E895E00E94C50F40910B
:10330000650550E070E060E02AE082E895E00E9408
:103310003C0E6DE673E082E895E00E94C50F809157
:1033200034050E94C20E0E9463056093710570937C
:10333000720580937305909374050E946305009154
:103340006D0510916E0520916F0530917005601B21
:10335000710B820B930B683B7B408105910508F450
:10336000B6C182E895E00E94BE0E6FE673E082E887
:1033700095E00E94D70E6FE873E082E895E00E9426
:10338000C50F4091450550914605609147057091E4
:10339000480523E030E082E895E00E94E90E69E903
:1033A00073E082E895E00E94D70E6CE973E082E852
:1033B00095E00E94C50F40914105509142056091F2
:1033C00043057091440523E030E082E895E00E94D7
:1033D000E90E69E973E082E895E00E94D70E66EA9B
:1033E00073E082E895E00E94C50F40913D05509141
:1033F0003E0560913F057091400523E030E082E892
:1034000095E00E94E90E69E973E082E895E00E9488
:10341000D70E60EB73E082E895E00E94C50F409103
:10342000390550913A0560913B0570913C0523E0C8
:1034300030E082E895E00E94E90E69E973E082E8F5
:1034400095E00E94D70E82E895E00E94BE0E6AEBDE
:1034500073E082E895E00E94C50F40915D055091B0
:103460005E0560915F057091600522E030E082E8C2
:1034700095E00E94E90E69E973E082E895E00E9418
:10348000D70E64EC73E082E895E00E94C50F40918E
:10349000590550915A0560915B0570915C0522E0D9
:1034A00030E082E895E00E94E90E69E973E082E885
:1034B00095E00E94D70E6EEC73E082E895E00E94E2
:1034C000C50F409155055091560560915705709173
:1034D000580522E030E082E895E00E94E90E69E9B3
:1034E00073E082E895E00E94D70E68ED73E082E811
:1034F00095E00E94C50F4091510550915205609191
:1035000053057091540522E030E082E895E00E9476
:10351000E90E69E973E082E895E00E94D70E62EE59
:1035200073E082E895E00E94C50F40914D055091EF
:103530004E0560914F057091500522E030E082E821
:1035400095E00E94E90E69E973E082E895E00E9447
:10355000D70E6AEE73E082E895E00E94C50F4091B5
:10356000490550914A0560914B0570914C0521E049
:1035700030E082E895E00E94E90E61EF73E082E8B6
:1035800095E00E94D70E64EF73E082E895E00E9418
:10359000C50F409175055091760560917705709142
:1035A000780522E030E082E895E00E94E90E6FEFB6
:1035B00073E082E895E00E94D70E62E074E082E852
:1035C00095E00E94C50F409100015091010160916A
:1035D00002017091030121E030E082E895E00E9451
:1035E000E90E6AE074E082E895E00E94D70E82E876
:1035F00095E00E94BE0E6DE074E082E895E00E94C6
:10360000C50F809138056FE473E0811102C06EEB45
:1036100074E082E895E00E94D70E63E174E082E8EE
:1036200095E00E94C50F809137056FE473E081112A
:1036300002C06EEB74E082E895E00E94D70E6BEE5C
:1036400073E082E895E00E94C50F809136056FE433
:1036500073E0811102C06EEB74E082E895E00E9495
:10366000D70E69E174E082E895E00E94C50F809171
:1036700035056FE473E0811102C06EEB74E082E8FF
:1036800095E00E94D70E6FE174E082E895E00E9419
:10369000C50F809165050E94C20E6DE274E082E85C
:1036A00095E00E94C50F809134050E94C20E6FE321
:1036B00074E082E895E00E94D70E0E946305609353
:1036C0006D0570936E0580936F05909370050E9451
:1036D00063050091690510916A0520916B05309191
:1036E0006C05601B710B820B930B683B7B40810563
:1036F0009105B8F080916705909168050196833037
:1037000091050CF024C190936805809367050E9491
:1037100063056093690570936A0580936B059093C8
:103720006C050E94060E80916705909168051092C5
:103730002C0610922B0610922E0610922D06009742
:1037400009F00AC16FE574E08FE196E00E94C50FB1
:1037500040915D0550915E0560915F057091600537
:1037600022E030E08FE196E00E94E90E8AE290E0EC
:1037700090932C0680932B0610922E0610922D0605
:1037800063E674E08FE196E00E94C50F4091590511
:1037900050915A0560915B0570915C0522E030E024
:1037A0008FE196E00E94E90E10922C0610922B06F3
:1037B000ACE0B0E0B0932E06A0932D0667E674E06F
:1037C0008FE196E00E94C50F409155055091560536
:1037D000609157057091580522E030E08FE196E046
:1037E0000E94E90EEAE2F0E0F0932C06E0932B064B
:1037F0008CE090E090932E0680932D066BE674E0AB
:103800008FE196E00E94C50F4091510550915205FD
:10381000609153057091540522E030E08FE196E00D
:103820000E94E90E10922C0610922B06ACE1B0E03B
:10383000B0932E06A0932D066FE674E08FE196E01C
:103840000E94C50F40914D0550914E0560914F0566
:103850007091500521E030E08FE196E00E94E90E82
:103860006AE973E08FE196E00E94C50F10922C0682
:1038700010922B06EAE2F0E0F0932E06E0932D067C
:1038800065E774E08FE196E00E94C50F60914905FD
:1038900070914A0580914B0590914C050E94691EDC
:1038A0008FE196E00E94880E62EF73E08FE196E070
:1038B0000E94C50F0E94F60664E670E080E090E08A
:1038C0000E943105E0E0F0E0EF2B11F40C94451478
:1038D0000E94E005882311F40C9445140E94000016
:1038E0000C94451481E017CB91E09D8B5BCB1C8938
:1038F00089CB1D8987CB11E085CB8D89882321F069
:1039000092E09093650587CB20E030E040E050E402
:10391000C301B2010E94511F181624F4A3E0A09322
:10392000650579CB20E030E040E752E4C501B40101
:103930000E94511F181624F4B4E0B09365056BCBB8
:103940001092650568CBF1E0F0933405C2CB10927C
:10395000680510926705DBCE019709F04FC06AE752
:1039600074E08FE196E00E94C50F10922C06109231
:103970002B068CE090E090932E0680932D064091CC
:10398000750550917605609177057091780522E074
:1039900030E08FE196E00E94E90E6FEF73E08FE177
:1039A00096E00E94C50F10922C0610922B06ACE1F7
:1039B000B0E0B0932E06A0932D0662E874E08FE18C
:1039C00096E00E94C50F10922C0610922B06E8E29A
:1039D000F0E0F0932E06E0932D0640910001509107
:1039E0000101609102017091030121E030E08FE15B
:1039F00096E00E94E90E6AE074E058CF67E874E050
:103A00008FE196E00E94C50F10922C0610922B06B3
:103A10008EE090E090932E0680932D0680916605AF
:103A2000882309F46BC062E974E08FE196E00E949C
:103A3000C50F4091650550E070E060E02AE08FE13D
:103A400096E00E943C0E10922C0610922B068CE100
:103A500090E090932E0680932D0660EA74E08FE14B
:103A600096E00E94C50F80916405882331F065EAD5
:103A700074E08FE196E00E94C50F80916305882372
:103A800031F068EA74E08FE196E00E94C50F809102
:103A90006205882331F06BEA74E08FE196E00E94C2
:103AA000C50F80916105882331F06EEA74E08FE1E3
:103AB00096E00E94C50F80916405811112C080912B
:103AC000630581110EC08091620581110AC0809149
:103AD0006105811106C061EB74E08FE196E00E9400
:103AE000C50F10922C0610922B06AAE2B0E0B093FC
:103AF0002E06A0932D0666EB74E0D8CE69E974E03B
:103B00008FE196E00E94C50F9ECF5058BB27AA2791
:103B10000E949D1D0C94171F0E94091F38F00E94DF
:103B2000101F20F039F49F3F19F426F40C94061F5F
:103B30000EF4E095E7FB0C94001FE92F0E94281F6C
:103B400058F3BA17620773078407950720F079F4D2
:103B5000A6F50C944A1F0EF4E0950B2EBA2FA02D5B
:103B60000B01B90190010C01CA01A0011124FF272A
:103B7000591B99F0593F50F4503E68F11A16F04025
:103B8000A22F232F342F4427585FF3CF4695379524
:103B90002795A795F0405395C9F77EF41F16BA0BE9
:103BA000620B730B840BBAF09150A1F0FF0FBB1F97
:103BB000661F771F881FC2F70EC0BA0F621F731FE0
:103BC000841F48F4879577956795B795F7959E3F3D
:103BD00008F0B0CF9395880F08F09927EE0F9795CE
:103BE000879508950E94DC1E08F481E008950E94E4
:103BF0000B1E0C94171F0E94101F58F00E94091FE3
:103C000040F029F45F3F29F00C94001F51110C94EF
:103C10004B1F0C94061F0E94281F68F39923B1F3D1
:103C2000552391F3951B550BBB27AA2762177307E2
:103C3000840738F09F5F5F4F220F331F441FAA1F76
:103C4000A9F335D00E2E3AF0E0E832D09150504032
:103C5000E695001CCAF72BD0FE2F29D0660F771FE0
:103C6000881FBB1F261737074807AB07B0E809F0C6
:103C7000BB0B802DBF01FF2793585F4F3AF09E3F4B
:103C8000510578F00C94001F0C944B1F5F3FE4F338
:103C9000983ED4F3869577956795B795F7959F5F8E
:103CA000C9F7880F911D9695879597F90895E1E0DA
:103CB000660F771F881FBB1F621773078407BA0739
:103CC00020F0621B730B840BBA0BEE1F88F7E09594
:103CD00008950E94701E6894B1110C944B1F0895B2
:103CE0000E94301F88F09F5798F0B92F9927B7513D
:103CF000B0F0E1F0660F771F881F991F1AF0BA9590
:103D0000C9F714C0B13091F00E944A1FB1E0089584
:103D10000C944A1F672F782F8827B85F39F0B93F76
:103D2000CCF3869577956795B395D9F73EF4909542
:103D30008095709561957F4F8F4F9F4F0895E894C0
:103D400009C097FB3EF490958095709561957F4FE3
:103D50008F4F9F4F9923A9F0F92F96E9BB27939591
:103D6000F695879577956795B795F111F8CFFAF4A1
:103D7000BB0F11F460FF1BC06F5F7F4F8F4F9F4FD2
:103D800016C0882311F096E911C0772321F09EE830
:103D9000872F762F05C0662371F096E8862F70E096
:103DA00060E02AF09A95660F771F881FDAF7880F70
:103DB0009695879597F90895990F0008550FAA0BC6
:103DC000E0E8FEEF16161706E807F907C0F012162E
:103DD0001306E407F50798F0621B730B840B950B31
:103DE00039F40A2661F0232B242B252B21F4089586
:103DF0000A2609F4A140A6958FEF811D811D089523
:103E000097F99F6780E870E060E008959FEF80EC8D
:103E1000089500240A941616170618060906089530
:103E200000240A9412161306140605060895092E96
:103E30000394000C11F4882352F0BB0F40F4BF2B05
:103E400011F460FF04C06F5F7F4F8F4F9F4F089545
:103E500057FD9058440F551F59F05F3F71F047953B
:103E6000880F97FB991F61F09F3F79F08795089520
:103E7000121613061406551FF2CF4695F1DF08C03F
:103E8000161617061806991FF1CF8695710561055C
:103E900008940895E894BB2766277727CB0197F904
:103EA00008950E94DC1E08F48FEF089516F00C941C
:103EB00018200C94061F68940C94001F0E94301F59
:103EC000A8F39923C1F3AEF3DF93CF931F930F931E
:103ED000FF92C92FDD2788232AF02197660F771FCD
:103EE000881FDAF720E030E040E85FEB9FE3883995
:103EF00020F0803E38F021968F770E94861DE8E6FC
:103F0000F0E004C00E94861DE5E9F0E00E94262052
:103F10008B01BE01EC01FB2E6F5771097595771F60
:103F2000880B990B0E94A11E28E132E741E35FE371
:103F30000E94B91FAF2D9801AE01FF900F911F9104
:103F4000CF91DF910E949D1D0C94171F0E94B91FF5
:103F50000C94171F0E94091F38F00E94101F20F0B8
:103F6000952311F00C94001F0C94061F11240C943F
:103F70004B1F0E94281F70F3959FC1F3950F50E0CF
:103F8000551F629FF001729FBB27F00DB11D639F0B
:103F9000AA27F00DB11DAA1F649F6627B00DA11DB1
:103FA000661F829F2227B00DA11D621F739FB00D57
:103FB000A11D621F839FA00D611D221F749F3327C7
:103FC000A00D611D231F849F600D211D822F762F60
:103FD0006A2F11249F5750409AF0F1F088234AF03D
:103FE000EE0FFF1FBB1F661F771F881F91505040A9
:103FF000A9F79E3F510580F00C94001F0C944B1FB5
:104000005F3FE4F3983ED4F3869577956795B7952F
:10401000F795E7959F5FC1F7FE2B880F911D969549
:10402000879597F908950E94DC1E880B990B0895D7
:104030009F3F31F0915020F4879577956795B7951C
:10404000880F911D9695879597F90895DF93CF93E3
:104050001F930F93FF92EF92DF927B018C01689484
:1040600006C0DA2EEF010E94B91FFE01E894A59167
:104070002591359145915591A6F3EF010E949D1D23
:10408000FE019701A801DA9469F7DF90EF90FF90A5
:104090000F911F91CF91DF91089597FB072E16F492
:1040A000009407D077FD09D00E94832007FC05D03B
:1040B0003EF4909581959F4F0895709561957F4F3F
:1040C0000895A1E21A2EAA1BBB1BFD010DC0AA1F59
:1040D000BB1FEE1FFF1FA217B307E407F50720F071
:1040E000A21BB30BE40BF50B661F771F881F991FEC
:1040F0001A9469F760957095809590959B01AC0135
:10410000BD01CF010895AA1BBB1B51E107C0AA1F27
:10411000BB1FA617B70710F0A61BB70B881F991F68
:104120005A95A9F780959095BC01CD010895EE0FA1
:10413000FF1F0590F491E02D09940F931F93CF93E7
:10414000DF938230910510F482E090E0E091480620
:10415000F091490630E020E0B0E0A0E0309799F41B
:104160002115310509F44AC0281B390B24303105CB
:10417000D8F58A819B816115710589F1FB019383D3
:104180008283FE0111C04081518102811381481751
:104190005907E0F04817590799F4109761F0129603
:1041A0000C93129713961C933296CF01DF91CF9107
:1041B0001F910F9108950093480610934906F4CF7C
:1041C0002115310551F04217530738F0A901DB01E1
:1041D0009A01BD01DF01F801C1CFEF01F9CF909342
:1041E000490680934806CDCFFE01E20FF31F81936D
:1041F00091932250310939832883D7CF20914606E5
:1042000030914706232B41F42091FE023091FF02AA
:1042100030934706209346062091FC023091FD0220
:104220002115310541F42DB73EB74091000350915F
:104230000103241B350BE0914606F0914706E21777
:10424000F307A0F42E1B3F0B2817390778F0AC01B9
:104250004E5F5F4F2417350748F04E0F5F1F509396
:10426000470640934606819391939FCFF0E0E0E0AC
:104270009CCFCF93DF930097E9F0FC013297138234
:104280001282A0914806B0914906ED0130E020E08D
:104290001097A1F420813181820F931F209146064F
:1042A000309147062817390709F061C0F093470697
:1042B000E0934606DF91CF910895EA01CE17DF071C
:1042C000E8F54A815B819E0141155105B1F7E9018D
:1042D000FB83EA8349915991C40FD51FEC17FD0761
:1042E00061F4808191810296840F951FE901998381
:1042F0008883828193819B838A83F0E0E0E0129639
:104300008D919C9113970097B9F52D913C91119740
:10431000CD010296820F931F2091460630914706E9
:104320002817390739F6309751F51092490610923F
:104330004806B0934706A0934606BCCFD383C283FA
:1043400040815181840F951FC817D90761F44E5FD2
:104350005F4F88819981480F591F518340838A811B
:104360009B81938382832115310509F0B0CFF093AF
:104370004906E09348069ECFFD01DC01C0CF1382C1
:104380001282D7CF81E090E0F8940C94C721F89482
:02439000FFCF5D
:104392000000C84100000000000000000000000012
:1043A200000000000000000000000000000000000B
:1043B20000000000000000000000C0E0F0F8FCFC7B
:1043C200FEFFFCE000000000000000000000000012
:1043D20000000000000000000000000000000000DB
:1043E20000000000000000000000000000000000CB
:1043F200000000000000000000F8F8F8F8F8F8F8F3
:10440200F8F8F8F8F8F0F0E0E0C080C0FCFFFFFF39
:10441200FF7F3F7FFFFFFFFFFF0000000000000063
:10442200000000000000000000000000000000008A
:10443200000000000000000000000000000000007A
:1044420000000000000000000000000000000F1F3C
:104452003F7FFFFFFFFFFFFFFFFFE7C7C7878F9F7A
:104462009FFFFFFFC1C0E0FCFFFFFFFFFFFCFCFC62
:10447200FCFEFEFEFCFCF8F8F0E0C0C0000000000C
:10448200000000000000000000000000000000002A
:10449200000000000000000000000000000000001A
:1044A200000000000080C0E0F1FBFFFFFFFFFF7F84
:1044B2001F0F0F87E7FFFFFF1F1F3FF9F8F8F8F8FC
:1044C200F8F8FDFFFFFFFFFFFFFFFFFF7F3F0F0732
:1044D20001000000000000000000000000000000D9
:1044E20000000000000000000000000000000000CA
:1044F20000000000000000F0FEFFFFFFFFFFFFFFD3
:10450200FFFFFFFE7E3F3F0F1FFFFFFFFCF0E0F1CA
:10451200FFFFFFFFFFFCF0010101010101010100AA
:104522000000000000000000000000000000000089
:104532000000000000000000000000000000000079
:10454200000000000000000000000003030303035A
:104552000303030101010100000000000000030F3A
:104562001F3F7F7FFFFFFFFF7F7F1F0300000000D1
:104572000000000000000000000000000000000039
:1045820000000000000000000000000000004A06D9
:1045920080000000000016067605A3056306D40518
:1045A200B205C60500000000680A7605C20DC10DFD
:1045B2006C0703080D0DE50C010DF50C140D030835
:1045C2002E085B07AC0C730C2E0C110C990B3A0BDA
:1045D2000D0A006E616E00696E66006F76660059A4
:1045E200455300345320424D530050524F544555C9
:1045F200530053494D554C4154494F4E002C003DF8
:104602003D3D3D3D3D3D3D3D3D20424D53204445D8
:10461200425547203D3D3D3D3D3D3D3D3D3D0041F7
:104622004443204130203D20002056004144432095
:104632004131203D2000414443204132203D2000B1
:10464200414443204133203D200043454C4C20311E
:10465200203D200043454C4C2032203D2000434564
:104662004C4C2033203D200043454C4C2034203D0F
:1046720020005041434B203D2000534F43203D201A
:104682000020250043555252454E54203D20002023
:10469200410054454D50203D20002043004F5620FC
:1046A2003D20005556203D20004F54203D2000461D
:1046B20041554C5420434F4445203D200042414C3B
:1046C200414E43494E4720434F4445203D20003D43
:1046D2003D3D3D3D3D3D3D3D3D3D3D3D3D3D3D3D08
:1046E2003D3D3D3D3D3D3D3D3D3D3D3D3D3D00432F
:1046F200313A0043323A0043333A0043343A0050ED
:1047020041434B3A00534F433A0043555252454EB0
:10471200540054454D5000424D532053544154557A
:1047220053004641554C543A004E4F524D414C00B5
:1047320042414C3A00312000322000332000342024
:10474200004E4F4E45005458202D3E204E414E4FB4
:02475200000065
:00000001FF
